{
  "contractName": "AuthorityContract",
  "abi": [
    {
      "anonymous": false,
      "inputs": [
        {
          "indexed": false,
          "internalType": "uint256",
          "name": "_hospitalId",
          "type": "uint256"
        },
        {
          "indexed": false,
          "internalType": "uint256",
          "name": "_needAmount",
          "type": "uint256"
        },
        {
          "indexed": false,
          "internalType": "uint256",
          "name": "_patientId",
          "type": "uint256"
        },
        {
          "indexed": false,
          "internalType": "uint256",
          "name": "_timestamp",
          "type": "uint256"
        }
      ],
      "name": "AskAuthorize",
      "type": "event"
    },
    {
      "anonymous": false,
      "inputs": [
        {
          "indexed": false,
          "internalType": "uint256",
          "name": "_hospitalId",
          "type": "uint256"
        },
        {
          "indexed": false,
          "internalType": "uint256",
          "name": "timestamp",
          "type": "uint256"
        }
      ],
      "name": "HospitalRegisterApply",
      "type": "event"
    },
    {
      "anonymous": false,
      "inputs": [
        {
          "indexed": false,
          "internalType": "uint256",
          "name": "_hospitalId",
          "type": "uint256"
        },
        {
          "indexed": false,
          "internalType": "uint256",
          "name": "timestamp",
          "type": "uint256"
        }
      ],
      "name": "HospitalRegisterSuccess",
      "type": "event"
    },
    {
      "anonymous": false,
      "inputs": [
        {
          "indexed": true,
          "internalType": "address",
          "name": "oldManager",
          "type": "address"
        },
        {
          "indexed": true,
          "internalType": "address",
          "name": "newManager",
          "type": "address"
        }
      ],
      "name": "ManagerSet",
      "type": "event"
    },
    {
      "anonymous": false,
      "inputs": [
        {
          "indexed": false,
          "internalType": "uint256",
          "name": "_patientId",
          "type": "uint256"
        },
        {
          "indexed": false,
          "internalType": "uint256",
          "name": "_needAmount",
          "type": "uint256"
        },
        {
          "indexed": false,
          "internalType": "uint256",
          "name": "_hospitalId",
          "type": "uint256"
        },
        {
          "indexed": false,
          "internalType": "uint256",
          "name": "_timestamp",
          "type": "uint256"
        }
      ],
      "name": "PatientAuthorize",
      "type": "event"
    },
    {
      "anonymous": false,
      "inputs": [
        {
          "indexed": false,
          "internalType": "uint256",
          "name": "_patientId",
          "type": "uint256"
        },
        {
          "indexed": false,
          "internalType": "uint256",
          "name": "timestamp",
          "type": "uint256"
        }
      ],
      "name": "PatientRegisterApply",
      "type": "event"
    },
    {
      "anonymous": false,
      "inputs": [
        {
          "indexed": false,
          "internalType": "uint256",
          "name": "_patientId",
          "type": "uint256"
        },
        {
          "indexed": false,
          "internalType": "uint256",
          "name": "timestamp",
          "type": "uint256"
        }
      ],
      "name": "PatientRegisterSuccess",
      "type": "event"
    },
    {
      "anonymous": false,
      "inputs": [
        {
          "indexed": false,
          "internalType": "uint256",
          "name": "_hospitalId",
          "type": "uint256"
        },
        {
          "indexed": false,
          "internalType": "uint256",
          "name": "_needAmount",
          "type": "uint256"
        },
        {
          "indexed": false,
          "internalType": "uint256",
          "name": "_patientId",
          "type": "uint256"
        },
        {
          "indexed": false,
          "internalType": "uint256",
          "name": "_timestamp",
          "type": "uint256"
        },
        {
          "indexed": false,
          "internalType": "uint256",
          "name": "_duration",
          "type": "uint256"
        }
      ],
      "name": "Q_hasPatient",
      "type": "event"
    },
    {
      "anonymous": false,
      "inputs": [
        {
          "indexed": false,
          "internalType": "uint256",
          "name": "_hospitalId",
          "type": "uint256"
        },
        {
          "indexed": false,
          "internalType": "uint256",
          "name": "_needAmount",
          "type": "uint256"
        },
        {
          "indexed": false,
          "internalType": "uint256",
          "name": "_timestamp",
          "type": "uint256"
        }
      ],
      "name": "ReturnURLs",
      "type": "event"
    },
    {
      "constant": true,
      "inputs": [],
      "name": "GetHospitalBlockNum",
      "outputs": [
        {
          "internalType": "uint256",
          "name": "",
          "type": "uint256"
        }
      ],
      "payable": false,
      "stateMutability": "view",
      "type": "function"
    },
    {
      "constant": true,
      "inputs": [],
      "name": "GetPatientBlockNum",
      "outputs": [
        {
          "internalType": "uint256",
          "name": "",
          "type": "uint256"
        }
      ],
      "payable": false,
      "stateMutability": "view",
      "type": "function"
    },
    {
      "constant": false,
      "inputs": [],
      "name": "HospitalRegister",
      "outputs": [],
      "payable": false,
      "stateMutability": "nonpayable",
      "type": "function"
    },
    {
      "constant": false,
      "inputs": [],
      "name": "PatientRegister",
      "outputs": [],
      "payable": false,
      "stateMutability": "nonpayable",
      "type": "function"
    },
    {
      "constant": false,
      "inputs": [
        {
          "internalType": "address",
          "name": "newManager",
          "type": "address"
        }
      ],
      "name": "changeManager",
      "outputs": [],
      "payable": false,
      "stateMutability": "nonpayable",
      "type": "function"
    },
    {
      "constant": true,
      "inputs": [],
      "name": "getHospitalIdByAddress",
      "outputs": [
        {
          "internalType": "uint256",
          "name": "",
          "type": "uint256"
        }
      ],
      "payable": false,
      "stateMutability": "view",
      "type": "function"
    },
    {
      "constant": true,
      "inputs": [],
      "name": "getPatientIdByAddress",
      "outputs": [
        {
          "internalType": "uint256",
          "name": "",
          "type": "uint256"
        }
      ],
      "payable": false,
      "stateMutability": "view",
      "type": "function"
    },
    {
      "constant": true,
      "inputs": [],
      "name": "isManager",
      "outputs": [
        {
          "internalType": "uint256",
          "name": "",
          "type": "uint256"
        }
      ],
      "payable": false,
      "stateMutability": "view",
      "type": "function"
    },
    {
      "constant": false,
      "inputs": [
        {
          "internalType": "uint256",
          "name": "_newBlockNum",
          "type": "uint256"
        }
      ],
      "name": "setHBlockNum",
      "outputs": [],
      "payable": false,
      "stateMutability": "nonpayable",
      "type": "function"
    },
    {
      "constant": false,
      "inputs": [
        {
          "internalType": "uint256",
          "name": "_newBlockNum",
          "type": "uint256"
        }
      ],
      "name": "setPBlockNum",
      "outputs": [],
      "payable": false,
      "stateMutability": "nonpayable",
      "type": "function"
    },
    {
      "constant": false,
      "inputs": [
        {
          "internalType": "uint256",
          "name": "_hospitalId",
          "type": "uint256"
        }
      ],
      "name": "verifyHospital",
      "outputs": [],
      "payable": false,
      "stateMutability": "nonpayable",
      "type": "function"
    },
    {
      "constant": false,
      "inputs": [
        {
          "internalType": "uint256",
          "name": "_patientId",
          "type": "uint256"
        }
      ],
      "name": "verifyPatient",
      "outputs": [],
      "payable": false,
      "stateMutability": "nonpayable",
      "type": "function"
    },
    {
      "constant": false,
      "inputs": [
        {
          "internalType": "uint256",
          "name": "_patientId",
          "type": "uint256"
        },
        {
          "internalType": "uint256",
          "name": "_datatype",
          "type": "uint256"
        },
        {
          "internalType": "uint256",
          "name": "_duration",
          "type": "uint256"
        }
      ],
      "name": "NewDataNeeder",
      "outputs": [],
      "payable": false,
      "stateMutability": "nonpayable",
      "type": "function"
    },
    {
      "constant": false,
      "inputs": [
        {
          "internalType": "uint256",
          "name": "_patientId",
          "type": "uint256"
        },
        {
          "internalType": "uint256",
          "name": "_needAmount",
          "type": "uint256"
        }
      ],
      "name": "AskPatientAuthority",
      "outputs": [],
      "payable": false,
      "stateMutability": "nonpayable",
      "type": "function"
    },
    {
      "constant": false,
      "inputs": [
        {
          "internalType": "uint256",
          "name": "_hospitalId",
          "type": "uint256"
        },
        {
          "internalType": "uint256",
          "name": "_needAmount",
          "type": "uint256"
        }
      ],
      "name": "PatientAuthorize2need",
      "outputs": [],
      "payable": false,
      "stateMutability": "nonpayable",
      "type": "function"
    },
    {
      "constant": false,
      "inputs": [
        {
          "internalType": "uint256",
          "name": "_needAmount",
          "type": "uint256"
        },
        {
          "internalType": "string",
          "name": "_url",
          "type": "string"
        }
      ],
      "name": "ProvideData",
      "outputs": [],
      "payable": false,
      "stateMutability": "nonpayable",
      "type": "function"
    },
    {
      "constant": true,
      "inputs": [
        {
          "internalType": "uint256",
          "name": "_needAmount",
          "type": "uint256"
        },
        {
          "internalType": "uint256",
          "name": "urlId",
          "type": "uint256"
        }
      ],
      "name": "getURLByDataNeeder",
      "outputs": [
        {
          "internalType": "uint256",
          "name": "",
          "type": "uint256"
        },
        {
          "internalType": "string",
          "name": "",
          "type": "string"
        }
      ],
      "payable": false,
      "stateMutability": "view",
      "type": "function"
    }
  ],
  "bytecode": "0x608060405260006003556000600455600060075560006008556000600955336000806101000a81548173ffffffffffffffffffffffffffffffffffffffff021916908373ffffffffffffffffffffffffffffffffffffffff1602179055506000809054906101000a900473ffffffffffffffffffffffffffffffffffffffff1673ffffffffffffffffffffffffffffffffffffffff16600073ffffffffffffffffffffffffffffffffffffffff167fc64707e618a83637fc41ad1e3aa4242bd5fdd353f3d60bc0faf40db0d7d8607860405160405180910390a3611b0e806100e86000396000f3fe608060405234801561001057600080fd5b506004361061010b5760003560e01c80639a837c97116100a2578063a8ce334311610071578063a8ce3343146102da578063c56a3e8814610312578063d6adfbf314610330578063eb6ef565146103e8578063f33fc449146104205761010b565b80639a837c9714610250578063a27408f51461026e578063a3fbbaae14610278578063a4705d64146102bc5761010b565b8063811cb77a116100de578063811cb77a146101945780638677e974146101c25780638c4b773d1461020457806393d9e691146102325761010b565b80632cf319281461011057806341cc2d591461013e57806352e221351461016c57806373c890fa1461018a575b600080fd5b61013c6004803603602081101561012657600080fd5b81019080803590602001909291905050506104e5565b005b61016a6004803603602081101561015457600080fd5b8101908080359060200190929190505050610645565b005b610174610711565b6040518082815260200191505060405180910390f35b6101926107dd565b005b6101c0600480360360208110156101aa57600080fd5b8101908080359060200190929190505050610a28565b005b610202600480360360608110156101d857600080fd5b81019080803590602001909291908035906020019092919080359060200190929190505050610af4565b005b6102306004803603602081101561021a57600080fd5b8101908080359060200190929190505050610cd0565b005b61023a610e2f565b6040518082815260200191505060405180910390f35b610258610efb565b6040518082815260200191505060405180910390f35b610276610fae565b005b6102ba6004803603602081101561028e57600080fd5b81019080803573ffffffffffffffffffffffffffffffffffffffff1690602001909291905050506111f9565b005b6102c4611379565b6040518082815260200191505060405180910390f35b610310600480360360408110156102f057600080fd5b81019080803590602001909291908035906020019092919050505061142c565b005b61031a61152a565b6040518082815260200191505060405180910390f35b6103666004803603604081101561034657600080fd5b810190808035906020019092919080359060200190929190505050611592565b6040518083815260200180602001828103825283818151815260200191508051906020019080838360005b838110156103ac578082015181840152602081019050610391565b50505050905090810190601f1680156103d95780820380516001836020036101000a031916815260200191505b50935050505060405180910390f35b61041e600480360360408110156103fe57600080fd5b81019080803590602001909291908035906020019092919050505061176d565b005b6104e36004803603604081101561043657600080fd5b81019080803590602001909291908035906020019064010000000081111561045d57600080fd5b82018360208201111561046f57600080fd5b8035906020019184600183028401116401000000008311171561049157600080fd5b91908080601f016020809104026020016040519081016040528093929190818152602001838380828437600081840152601f19601f82011690508083019250505050505050919291929050505061186b565b005b6000809054906101000a900473ffffffffffffffffffffffffffffffffffffffff1673ffffffffffffffffffffffffffffffffffffffff163373ffffffffffffffffffffffffffffffffffffffff16146105a7576040517f08c379a000000000000000000000000000000000000000000000000000000000815260040180806020018281038252601a8152602001807f4f6e6c79206d616e616765722063616e2063616c6c207468697300000000000081525060200191505060405180910390fd5b6005600082815260200190815260200160002060000160149054906101000a900460ff166105d457600080fd5b60016005600083815260200190815260200160002060000160156101000a81548160ff0219169083151502179055507f0ce4c127b08cec9e0844159f283f9c24b04a39fcfe732bb61dac965e53e40f628142604051808381526020018281526020019250505060405180910390a150565b6000809054906101000a900473ffffffffffffffffffffffffffffffffffffffff1673ffffffffffffffffffffffffffffffffffffffff163373ffffffffffffffffffffffffffffffffffffffff1614610707576040517f08c379a000000000000000000000000000000000000000000000000000000000815260040180806020018281038252601a8152602001807f4f6e6c79206d616e616765722063616e2063616c6c207468697300000000000081525060200191505060405180910390fd5b8060088190555050565b60008060009054906101000a900473ffffffffffffffffffffffffffffffffffffffff1673ffffffffffffffffffffffffffffffffffffffff163373ffffffffffffffffffffffffffffffffffffffff16146107d5576040517f08c379a000000000000000000000000000000000000000000000000000000000815260040180806020018281038252601a8152602001807f4f6e6c79206d616e616765722063616e2063616c6c207468697300000000000081525060200191505060405180910390fd5b600854905090565b60016000600260003373ffffffffffffffffffffffffffffffffffffffff1673ffffffffffffffffffffffffffffffffffffffff16815260200190815260200160002054815260200190815260200160002060000160149054906101000a900460ff161561084a57600080fd5b60056000600660003373ffffffffffffffffffffffffffffffffffffffff1673ffffffffffffffffffffffffffffffffffffffff16815260200190815260200160002054815260200190815260200160002060000160149054906101000a900460ff16156108b757600080fd5b60076000815480929190600101919050555060405180606001604052803373ffffffffffffffffffffffffffffffffffffffff1681526020016001151581526020016000151581525060056000600754815260200190815260200160002060008201518160000160006101000a81548173ffffffffffffffffffffffffffffffffffffffff021916908373ffffffffffffffffffffffffffffffffffffffff16021790555060208201518160000160146101000a81548160ff02191690831515021790555060408201518160000160156101000a81548160ff021916908315150217905550905050600754600660003373ffffffffffffffffffffffffffffffffffffffff1673ffffffffffffffffffffffffffffffffffffffff168152602001908152602001600020819055507fc124201338050313a2652ffbe40e0604be2803257508dd3e437f17485818e93260075442604051808381526020018281526020019250505060405180910390a1565b6000809054906101000a900473ffffffffffffffffffffffffffffffffffffffff1673ffffffffffffffffffffffffffffffffffffffff163373ffffffffffffffffffffffffffffffffffffffff1614610aea576040517f08c379a000000000000000000000000000000000000000000000000000000000815260040180806020018281038252601a8152602001807f4f6e6c79206d616e616765722063616e2063616c6c207468697300000000000081525060200191505060405180910390fd5b8060048190555050565b60056000600660003373ffffffffffffffffffffffffffffffffffffffff1673ffffffffffffffffffffffffffffffffffffffff16815260200190815260200160002054815260200190815260200160002060000160159054906101000a900460ff16610b6057600080fd5b6009600081548092919060010191905055506040518060c00160405280600660003373ffffffffffffffffffffffffffffffffffffffff1673ffffffffffffffffffffffffffffffffffffffff1681526020019081526020016000205481526020018481526020018381526020018281526020016000815260200142815250600a60006009548152602001908152602001600020600082015181600001556020820151816001015560408201518160020155606082015181600301556080820151816004015560a082015181600501559050507f6117cb27f9991aa9b81964749a65ef16bd20bb31617d2dcf795f0618f4a5fd8d600660003373ffffffffffffffffffffffffffffffffffffffff1673ffffffffffffffffffffffffffffffffffffffff16815260200190815260200160002054600954854285604051808681526020018581526020018481526020018381526020018281526020019550505050505060405180910390a1505050565b6000809054906101000a900473ffffffffffffffffffffffffffffffffffffffff1673ffffffffffffffffffffffffffffffffffffffff163373ffffffffffffffffffffffffffffffffffffffff1614610d92576040517f08c379a000000000000000000000000000000000000000000000000000000000815260040180806020018281038252601a8152602001807f4f6e6c79206d616e616765722063616e2063616c6c207468697300000000000081525060200191505060405180910390fd5b6001600082815260200190815260200160002060000160149054906101000a900460ff16610dbf57600080fd5b600180600083815260200190815260200160002060000160156101000a81548160ff0219169083151502179055507f02583f1eec62e4196ffc2e0cafbc045b8d404e5dbc35559646a69ab4adb3b0f88142604051808381526020018281526020019250505060405180910390a150565b60008060009054906101000a900473ffffffffffffffffffffffffffffffffffffffff1673ffffffffffffffffffffffffffffffffffffffff163373ffffffffffffffffffffffffffffffffffffffff1614610ef3576040517f08c379a000000000000000000000000000000000000000000000000000000000815260040180806020018281038252601a8152602001807f4f6e6c79206d616e616765722063616e2063616c6c207468697300000000000081525060200191505060405180910390fd5b600454905090565b600060016000600260003373ffffffffffffffffffffffffffffffffffffffff1673ffffffffffffffffffffffffffffffffffffffff16815260200190815260200160002054815260200190815260200160002060000160149054906101000a900460ff16610f6957600080fd5b600260003373ffffffffffffffffffffffffffffffffffffffff1673ffffffffffffffffffffffffffffffffffffffff16815260200190815260200160002054905090565b60016000600260003373ffffffffffffffffffffffffffffffffffffffff1673ffffffffffffffffffffffffffffffffffffffff16815260200190815260200160002054815260200190815260200160002060000160149054906101000a900460ff161561101b57600080fd5b60056000600660003373ffffffffffffffffffffffffffffffffffffffff1673ffffffffffffffffffffffffffffffffffffffff16815260200190815260200160002054815260200190815260200160002060000160149054906101000a900460ff161561108857600080fd5b60036000815480929190600101919050555060405180606001604052803373ffffffffffffffffffffffffffffffffffffffff1681526020016001151581526020016000151581525060016000600354815260200190815260200160002060008201518160000160006101000a81548173ffffffffffffffffffffffffffffffffffffffff021916908373ffffffffffffffffffffffffffffffffffffffff16021790555060208201518160000160146101000a81548160ff02191690831515021790555060408201518160000160156101000a81548160ff021916908315150217905550905050600354600260003373ffffffffffffffffffffffffffffffffffffffff1673ffffffffffffffffffffffffffffffffffffffff168152602001908152602001600020819055507f3c21235b550c9a9298b450fe7791119feae603daef9055f7b25aada84c5f691260035442604051808381526020018281526020019250505060405180910390a1565b6000809054906101000a900473ffffffffffffffffffffffffffffffffffffffff1673ffffffffffffffffffffffffffffffffffffffff163373ffffffffffffffffffffffffffffffffffffffff16146112bb576040517f08c379a000000000000000000000000000000000000000000000000000000000815260040180806020018281038252601a8152602001807f4f6e6c79206d616e616765722063616e2063616c6c207468697300000000000081525060200191505060405180910390fd5b8073ffffffffffffffffffffffffffffffffffffffff166000809054906101000a900473ffffffffffffffffffffffffffffffffffffffff1673ffffffffffffffffffffffffffffffffffffffff167fc64707e618a83637fc41ad1e3aa4242bd5fdd353f3d60bc0faf40db0d7d8607860405160405180910390a3806000806101000a81548173ffffffffffffffffffffffffffffffffffffffff021916908373ffffffffffffffffffffffffffffffffffffffff16021790555050565b600060056000600660003373ffffffffffffffffffffffffffffffffffffffff1673ffffffffffffffffffffffffffffffffffffffff16815260200190815260200160002054815260200190815260200160002060000160149054906101000a900460ff166113e757600080fd5b600660003373ffffffffffffffffffffffffffffffffffffffff1673ffffffffffffffffffffffffffffffffffffffff16815260200190815260200160002054905090565b60016000600260003373ffffffffffffffffffffffffffffffffffffffff1673ffffffffffffffffffffffffffffffffffffffff16815260200190815260200160002054815260200190815260200160002060000160159054906101000a900460ff1661149857600080fd5b7fedb83938300e58842dea7e5d9fe8fd306d51afa225c35cf187d445397b0944f8600260003373ffffffffffffffffffffffffffffffffffffffff1673ffffffffffffffffffffffffffffffffffffffff168152602001908152602001600020548284426040518085815260200184815260200183815260200182815260200194505050505060405180910390a15050565b60008060009054906101000a900473ffffffffffffffffffffffffffffffffffffffff1673ffffffffffffffffffffffffffffffffffffffff163373ffffffffffffffffffffffffffffffffffffffff16141561158a576001905061158f565b600090505b90565b6000606060056000600660003373ffffffffffffffffffffffffffffffffffffffff1673ffffffffffffffffffffffffffffffffffffffff16815260200190815260200160002054815260200190815260200160002060000160159054906101000a900460ff1661160257600080fd5b6000600a600086815260200190815260200160002090503373ffffffffffffffffffffffffffffffffffffffff16600560008360000154815260200190815260200160002060000160009054906101000a900473ffffffffffffffffffffffffffffffffffffffff1673ffffffffffffffffffffffffffffffffffffffff161461168b57600080fd5b600081600601600086815260200190815260200160002060000154905060608260060160008781526020019081526020016000206001018054600181600116156101000203166002900480601f0160208091040260200160405190810160405280929190818152602001828054600181600116156101000203166002900480156117565780601f1061172b57610100808354040283529160200191611756565b820191906000526020600020905b81548152906001019060200180831161173957829003601f168201915b505050505090508181945094505050509250929050565b60056000600660003373ffffffffffffffffffffffffffffffffffffffff1673ffffffffffffffffffffffffffffffffffffffff16815260200190815260200160002054815260200190815260200160002060000160159054906101000a900460ff166117d957600080fd5b7f85b809fc0ce446cc5842a89f7efe58514a666e6d51ff861ce0c338e06c3f8b96600660003373ffffffffffffffffffffffffffffffffffffffff1673ffffffffffffffffffffffffffffffffffffffff168152602001908152602001600020548284426040518085815260200184815260200183815260200182815260200194505050505060405180910390a15050565b60056000600660003373ffffffffffffffffffffffffffffffffffffffff1673ffffffffffffffffffffffffffffffffffffffff16815260200190815260200160002054815260200190815260200160002060000160159054906101000a900460ff166118d757600080fd5b6000600a6000848152602001908152602001600020905080600401600081548092919060010191905055506040518060600160405280600660003373ffffffffffffffffffffffffffffffffffffffff1673ffffffffffffffffffffffffffffffffffffffff168152602001908152602001600020548152602001838152602001428152508160060160008360040154815260200190815260200160002060008201518160000155602082015181600101908051906020019061199b929190611a34565b50604082015181600201559050507f3f8ffb28d8e2282c3991434b80ff431f320f37cba9161e7b65557f9e0340ed3a600660003373ffffffffffffffffffffffffffffffffffffffff1673ffffffffffffffffffffffffffffffffffffffff16815260200190815260200160002054844260405180848152602001838152602001828152602001935050505060405180910390a1505050565b828054600181600116156101000203166002900490600052602060002090601f016020900481019282601f10611a7557805160ff1916838001178555611aa3565b82800160010185558215611aa3579182015b82811115611aa2578251825591602001919060010190611a87565b5b509050611ab09190611ab4565b5090565b611ad691905b80821115611ad2576000816000905550600101611aba565b5090565b9056fea265627a7a72315820ea083b5fdd7ddcada3d6b357c7367a1645a7ffaa5b2204a1a25865e08efdf1ab64736f6c63430005100032",
  "source": "pragma solidity >=0.5.0 <0.7.0;\r\nimport \"./MemberContract.sol\";\r\n// SPDX-License-Identifier: SJTU-IST\r\ncontract AuthorityContract is MemberContract{\r\n    event Q_hasPatient(uint _hospitalId,uint _needAmount,uint _patientId,uint _timestamp,uint _duration);\r\n    event AskAuthorize(uint _hospitalId,uint _needAmount,uint _patientId,uint _timestamp);\r\n    event PatientAuthorize(uint _patientId,uint _needAmount,uint _hospitalId,uint _timestamp);\r\n    event ReturnURLs(uint _hospitalId,uint _needAmount,uint _timestamp);\r\n    //dataneeder struct\r\n    struct DataNeeder{\r\n        uint hospitalId;\r\n        uint patientId;\r\n        uint datatype;\r\n        uint duration;\r\n        uint currentNum;\r\n        uint timestamp;\r\n        mapping(uint => DataProvider) providemap;\r\n    }\r\n    //dataprovider struct\r\n    struct DataProvider {\r\n        uint hospitalId;\r\n        string url;\r\n        uint timestamp;\r\n    }\r\n    uint needAmount = 0;\r\n    mapping(uint =>DataNeeder) needmap;\r\n    //Hospital_A creates new dataneeder\r\n    function NewDataNeeder(uint _patientId,uint _datatype,uint _duration) public {\r\n        require(hospitals[hospitalAddress2Id[msg.sender]].isVerified);\r\n        needAmount++;\r\n        needmap[needAmount]=DataNeeder(hospitalAddress2Id[msg.sender],_patientId,_datatype,_duration,0,now);\r\n        emit Q_hasPatient(hospitalAddress2Id[msg.sender],needAmount,_patientId,now,_duration);\r\n    }\r\n    //After checking database, Hospital_B asks patient's Authority\r\n    function AskPatientAuthority(uint _patientId,uint _needAmount) public {\r\n        require(hospitals[hospitalAddress2Id[msg.sender]].isVerified);\r\n        emit AskAuthorize(hospitalAddress2Id[msg.sender],_needAmount,_patientId,now);\r\n    }\r\n    //Patient Authorize to the need \r\n    function PatientAuthorize2need(uint _hospitalId,uint _needAmount) public {\r\n        require(patients[patientAddress2Id[msg.sender]].isVerified);\r\n        emit PatientAuthorize(patientAddress2Id[msg.sender],_needAmount,_hospitalId,now);\r\n    }\r\n    //Hospital_B provides URLs to the need\r\n    function ProvideData(uint _needAmount,string memory _url) public {\r\n        require(hospitals[hospitalAddress2Id[msg.sender]].isVerified);\r\n        DataNeeder storage _dataNeeder = needmap[_needAmount];\r\n        _dataNeeder.currentNum++;\r\n        _dataNeeder.providemap[_dataNeeder.currentNum]=DataProvider(hospitalAddress2Id[msg.sender], _url,now);\r\n        emit ReturnURLs(hospitalAddress2Id[msg.sender],_needAmount,now);\r\n    }\r\n    //Hospital_A gets URLs from the need\r\n    function getURLByDataNeeder(uint _needAmount,uint urlId) public view returns(uint,string memory) {\r\n        require(hospitals[hospitalAddress2Id[msg.sender]].isVerified);\r\n        DataNeeder storage _dataNeeder = needmap[_needAmount];\r\n        require(hospitals[_dataNeeder.hospitalId].hospitalAddress==msg.sender);\r\n        uint _providedHospitalId=_dataNeeder.providemap[urlId].hospitalId;\r\n        string memory _url=(_dataNeeder.providemap[urlId]).url;\r\n        return(_providedHospitalId,_url); \r\n    }\r\n}\r\n",
  "sourcePath": "D:/XIEHOU/study/PRP/Hospital_Patient_Authorize_DAPP/Hospital_Patient_Authorize_DAPP/src/contracts/AuthorityContract.sol",
  "compiler": {
    "name": "solc",
    "version": "0.5.16+commit.9c3226ce.Emscripten.clang"
  },
  "schemaVersion": "3.2.3",
  "updatedAt": "2021-02-23T09:15:16.055Z",
  "networkType": "ethereum",
  "devdoc": {
    "methods": {}
  },
  "userdoc": {
    "methods": {}
  }
}