{
  "contractName": "AuthorityContract",
  "abi": [
    {
      "anonymous": false,
      "inputs": [
        {
          "indexed": false,
          "internalType": "uint256",
          "name": "_hospitalId",
          "type": "uint256"
        },
        {
          "indexed": false,
          "internalType": "uint256",
          "name": "_needAmount",
          "type": "uint256"
        },
        {
          "indexed": false,
          "internalType": "uint256",
          "name": "_patientId",
          "type": "uint256"
        },
        {
          "indexed": false,
          "internalType": "uint256",
          "name": "_timestamp",
          "type": "uint256"
        }
      ],
      "name": "AskAuthorize",
      "type": "event"
    },
    {
      "anonymous": false,
      "inputs": [
        {
          "indexed": false,
          "internalType": "uint256",
          "name": "_hospitalId",
          "type": "uint256"
        },
        {
          "indexed": false,
          "internalType": "uint256",
          "name": "timestamp",
          "type": "uint256"
        }
      ],
      "name": "HospitalRegisterApply",
      "type": "event"
    },
    {
      "anonymous": false,
      "inputs": [
        {
          "indexed": false,
          "internalType": "uint256",
          "name": "_hospitalId",
          "type": "uint256"
        },
        {
          "indexed": false,
          "internalType": "uint256",
          "name": "timestamp",
          "type": "uint256"
        }
      ],
      "name": "HospitalRegisterSuccess",
      "type": "event"
    },
    {
      "anonymous": false,
      "inputs": [
        {
          "indexed": true,
          "internalType": "address",
          "name": "oldManager",
          "type": "address"
        },
        {
          "indexed": true,
          "internalType": "address",
          "name": "newManager",
          "type": "address"
        }
      ],
      "name": "ManagerSet",
      "type": "event"
    },
    {
      "anonymous": false,
      "inputs": [
        {
          "indexed": false,
          "internalType": "uint256",
          "name": "_patientId",
          "type": "uint256"
        },
        {
          "indexed": false,
          "internalType": "uint256",
          "name": "_needAmount",
          "type": "uint256"
        },
        {
          "indexed": false,
          "internalType": "uint256",
          "name": "_hospitalId",
          "type": "uint256"
        },
        {
          "indexed": false,
          "internalType": "uint256",
          "name": "_timestamp",
          "type": "uint256"
        }
      ],
      "name": "PatientAuthorize",
      "type": "event"
    },
    {
      "anonymous": false,
      "inputs": [
        {
          "indexed": false,
          "internalType": "uint256",
          "name": "_patientId",
          "type": "uint256"
        },
        {
          "indexed": false,
          "internalType": "uint256",
          "name": "timestamp",
          "type": "uint256"
        }
      ],
      "name": "PatientRegisterApply",
      "type": "event"
    },
    {
      "anonymous": false,
      "inputs": [
        {
          "indexed": false,
          "internalType": "uint256",
          "name": "_patientId",
          "type": "uint256"
        },
        {
          "indexed": false,
          "internalType": "uint256",
          "name": "timestamp",
          "type": "uint256"
        }
      ],
      "name": "PatientRegisterSuccess",
      "type": "event"
    },
    {
      "anonymous": false,
      "inputs": [
        {
          "indexed": false,
          "internalType": "uint256",
          "name": "_hospitalId",
          "type": "uint256"
        },
        {
          "indexed": false,
          "internalType": "uint256",
          "name": "_needAmount",
          "type": "uint256"
        },
        {
          "indexed": false,
          "internalType": "uint256",
          "name": "_patientId",
          "type": "uint256"
        },
        {
          "indexed": false,
          "internalType": "uint256",
          "name": "_timestamp",
          "type": "uint256"
        },
        {
          "indexed": false,
          "internalType": "uint256",
          "name": "_duration",
          "type": "uint256"
        }
      ],
      "name": "Q_hasPatient",
      "type": "event"
    },
    {
      "anonymous": false,
      "inputs": [
        {
          "indexed": false,
          "internalType": "uint256",
          "name": "_hospitalId",
          "type": "uint256"
        },
        {
          "indexed": false,
          "internalType": "uint256",
          "name": "_needAmount",
          "type": "uint256"
        },
        {
          "indexed": false,
          "internalType": "uint256",
          "name": "_timestamp",
          "type": "uint256"
        }
      ],
      "name": "ReturnURLs",
      "type": "event"
    },
    {
      "constant": false,
      "inputs": [],
      "name": "HospitalRegister",
      "outputs": [],
      "payable": false,
      "stateMutability": "nonpayable",
      "type": "function"
    },
    {
      "constant": false,
      "inputs": [],
      "name": "PatientRegister",
      "outputs": [],
      "payable": false,
      "stateMutability": "nonpayable",
      "type": "function"
    },
    {
      "constant": false,
      "inputs": [
        {
          "internalType": "address",
          "name": "newManager",
          "type": "address"
        }
      ],
      "name": "changeManager",
      "outputs": [],
      "payable": false,
      "stateMutability": "nonpayable",
      "type": "function"
    },
    {
      "constant": true,
      "inputs": [],
      "name": "getHospitalIdByAddress",
      "outputs": [
        {
          "internalType": "uint256",
          "name": "",
          "type": "uint256"
        }
      ],
      "payable": false,
      "stateMutability": "view",
      "type": "function"
    },
    {
      "constant": true,
      "inputs": [],
      "name": "getPatientIdByAddress",
      "outputs": [
        {
          "internalType": "uint256",
          "name": "",
          "type": "uint256"
        }
      ],
      "payable": false,
      "stateMutability": "view",
      "type": "function"
    },
    {
      "constant": false,
      "inputs": [
        {
          "internalType": "uint256",
          "name": "_hospitalId",
          "type": "uint256"
        }
      ],
      "name": "verifyHospital",
      "outputs": [],
      "payable": false,
      "stateMutability": "nonpayable",
      "type": "function"
    },
    {
      "constant": false,
      "inputs": [
        {
          "internalType": "uint256",
          "name": "_patientId",
          "type": "uint256"
        }
      ],
      "name": "verifyPatient",
      "outputs": [],
      "payable": false,
      "stateMutability": "nonpayable",
      "type": "function"
    },
    {
      "constant": false,
      "inputs": [
        {
          "internalType": "uint256",
          "name": "_patientId",
          "type": "uint256"
        },
        {
          "internalType": "uint256",
          "name": "_datatype",
          "type": "uint256"
        },
        {
          "internalType": "uint256",
          "name": "_duration",
          "type": "uint256"
        }
      ],
      "name": "NewDataNeeder",
      "outputs": [],
      "payable": false,
      "stateMutability": "nonpayable",
      "type": "function"
    },
    {
      "constant": false,
      "inputs": [
        {
          "internalType": "uint256",
          "name": "_patientId",
          "type": "uint256"
        },
        {
          "internalType": "uint256",
          "name": "_needAmount",
          "type": "uint256"
        }
      ],
      "name": "AskPatientAuthority",
      "outputs": [],
      "payable": false,
      "stateMutability": "nonpayable",
      "type": "function"
    },
    {
      "constant": false,
      "inputs": [
        {
          "internalType": "uint256",
          "name": "_hospitalId",
          "type": "uint256"
        },
        {
          "internalType": "uint256",
          "name": "_needAmount",
          "type": "uint256"
        }
      ],
      "name": "PatientAuthorize2need",
      "outputs": [],
      "payable": false,
      "stateMutability": "nonpayable",
      "type": "function"
    },
    {
      "constant": false,
      "inputs": [
        {
          "internalType": "uint256",
          "name": "_needAmount",
          "type": "uint256"
        },
        {
          "internalType": "string",
          "name": "_url",
          "type": "string"
        }
      ],
      "name": "ProvideData",
      "outputs": [],
      "payable": false,
      "stateMutability": "nonpayable",
      "type": "function"
    },
    {
      "constant": true,
      "inputs": [
        {
          "internalType": "uint256",
          "name": "_needAmount",
          "type": "uint256"
        },
        {
          "internalType": "uint256",
          "name": "urlId",
          "type": "uint256"
        }
      ],
      "name": "getURLByDataNeeder",
      "outputs": [
        {
          "internalType": "uint256",
          "name": "",
          "type": "uint256"
        },
        {
          "internalType": "string",
          "name": "",
          "type": "string"
        }
      ],
      "payable": false,
      "stateMutability": "view",
      "type": "function"
    }
  ],
  "bytecode": "0x6080604052600060035560006006556000600755336000806101000a81548173ffffffffffffffffffffffffffffffffffffffff021916908373ffffffffffffffffffffffffffffffffffffffff1602179055506000809054906101000a900473ffffffffffffffffffffffffffffffffffffffff1673ffffffffffffffffffffffffffffffffffffffff16600073ffffffffffffffffffffffffffffffffffffffff167fc64707e618a83637fc41ad1e3aa4242bd5fdd353f3d60bc0faf40db0d7d8607860405160405180910390a3611669806100de6000396000f3fe608060405234801561001057600080fd5b50600436106100b45760003560e01c8063a3fbbaae11610071578063a3fbbaae14610189578063a4705d64146101cd578063a8ce3343146101eb578063d6adfbf314610223578063eb6ef565146102db578063f33fc44914610313576100b4565b80632cf31928146100b957806373c890fa146100e75780638677e974146100f15780638c4b773d146101335780639a837c9714610161578063a27408f51461017f575b600080fd5b6100e5600480360360208110156100cf57600080fd5b81019080803590602001909291905050506103d8565b005b6100ef610538565b005b6101316004803603606081101561010757600080fd5b81019080803590602001909291908035906020019092919080359060200190929190505050610783565b005b61015f6004803603602081101561014957600080fd5b810190808035906020019092919050505061095f565b005b610169610abe565b6040518082815260200191505060405180910390f35b610187610b71565b005b6101cb6004803603602081101561019f57600080fd5b81019080803573ffffffffffffffffffffffffffffffffffffffff169060200190929190505050610dbc565b005b6101d5610f3c565b6040518082815260200191505060405180910390f35b6102216004803603604081101561020157600080fd5b810190808035906020019092919080359060200190929190505050610fef565b005b6102596004803603604081101561023957600080fd5b8101908080359060200190929190803590602001909291905050506110ed565b6040518083815260200180602001828103825283818151815260200191508051906020019080838360005b8381101561029f578082015181840152602081019050610284565b50505050905090810190601f1680156102cc5780820380516001836020036101000a031916815260200191505b50935050505060405180910390f35b610311600480360360408110156102f157600080fd5b8101908080359060200190929190803590602001909291905050506112c8565b005b6103d66004803603604081101561032957600080fd5b81019080803590602001909291908035906020019064010000000081111561035057600080fd5b82018360208201111561036257600080fd5b8035906020019184600183028401116401000000008311171561038457600080fd5b91908080601f016020809104026020016040519081016040528093929190818152602001838380828437600081840152601f19601f8201169050808301925050505050505091929192905050506113c6565b005b6000809054906101000a900473ffffffffffffffffffffffffffffffffffffffff1673ffffffffffffffffffffffffffffffffffffffff163373ffffffffffffffffffffffffffffffffffffffff161461049a576040517f08c379a000000000000000000000000000000000000000000000000000000000815260040180806020018281038252601a8152602001807f4f6e6c79206d616e616765722063616e2063616c6c207468697300000000000081525060200191505060405180910390fd5b6004600082815260200190815260200160002060000160149054906101000a900460ff166104c757600080fd5b60016004600083815260200190815260200160002060000160156101000a81548160ff0219169083151502179055507f0ce4c127b08cec9e0844159f283f9c24b04a39fcfe732bb61dac965e53e40f628142604051808381526020018281526020019250505060405180910390a150565b60016000600260003373ffffffffffffffffffffffffffffffffffffffff1673ffffffffffffffffffffffffffffffffffffffff16815260200190815260200160002054815260200190815260200160002060000160149054906101000a900460ff16156105a557600080fd5b60046000600560003373ffffffffffffffffffffffffffffffffffffffff1673ffffffffffffffffffffffffffffffffffffffff16815260200190815260200160002054815260200190815260200160002060000160149054906101000a900460ff161561061257600080fd5b60066000815480929190600101919050555060405180606001604052803373ffffffffffffffffffffffffffffffffffffffff1681526020016001151581526020016000151581525060046000600654815260200190815260200160002060008201518160000160006101000a81548173ffffffffffffffffffffffffffffffffffffffff021916908373ffffffffffffffffffffffffffffffffffffffff16021790555060208201518160000160146101000a81548160ff02191690831515021790555060408201518160000160156101000a81548160ff021916908315150217905550905050600654600560003373ffffffffffffffffffffffffffffffffffffffff1673ffffffffffffffffffffffffffffffffffffffff168152602001908152602001600020819055507fc124201338050313a2652ffbe40e0604be2803257508dd3e437f17485818e93260065442604051808381526020018281526020019250505060405180910390a1565b60046000600560003373ffffffffffffffffffffffffffffffffffffffff1673ffffffffffffffffffffffffffffffffffffffff16815260200190815260200160002054815260200190815260200160002060000160159054906101000a900460ff166107ef57600080fd5b6007600081548092919060010191905055506040518060c00160405280600560003373ffffffffffffffffffffffffffffffffffffffff1673ffffffffffffffffffffffffffffffffffffffff1681526020019081526020016000205481526020018481526020018381526020018281526020016000815260200142815250600860006007548152602001908152602001600020600082015181600001556020820151816001015560408201518160020155606082015181600301556080820151816004015560a082015181600501559050507f6117cb27f9991aa9b81964749a65ef16bd20bb31617d2dcf795f0618f4a5fd8d600560003373ffffffffffffffffffffffffffffffffffffffff1673ffffffffffffffffffffffffffffffffffffffff16815260200190815260200160002054600754854285604051808681526020018581526020018481526020018381526020018281526020019550505050505060405180910390a1505050565b6000809054906101000a900473ffffffffffffffffffffffffffffffffffffffff1673ffffffffffffffffffffffffffffffffffffffff163373ffffffffffffffffffffffffffffffffffffffff1614610a21576040517f08c379a000000000000000000000000000000000000000000000000000000000815260040180806020018281038252601a8152602001807f4f6e6c79206d616e616765722063616e2063616c6c207468697300000000000081525060200191505060405180910390fd5b6001600082815260200190815260200160002060000160149054906101000a900460ff16610a4e57600080fd5b600180600083815260200190815260200160002060000160156101000a81548160ff0219169083151502179055507f02583f1eec62e4196ffc2e0cafbc045b8d404e5dbc35559646a69ab4adb3b0f88142604051808381526020018281526020019250505060405180910390a150565b600060016000600260003373ffffffffffffffffffffffffffffffffffffffff1673ffffffffffffffffffffffffffffffffffffffff16815260200190815260200160002054815260200190815260200160002060000160149054906101000a900460ff16610b2c57600080fd5b600260003373ffffffffffffffffffffffffffffffffffffffff1673ffffffffffffffffffffffffffffffffffffffff16815260200190815260200160002054905090565b60016000600260003373ffffffffffffffffffffffffffffffffffffffff1673ffffffffffffffffffffffffffffffffffffffff16815260200190815260200160002054815260200190815260200160002060000160149054906101000a900460ff1615610bde57600080fd5b60046000600560003373ffffffffffffffffffffffffffffffffffffffff1673ffffffffffffffffffffffffffffffffffffffff16815260200190815260200160002054815260200190815260200160002060000160149054906101000a900460ff1615610c4b57600080fd5b60036000815480929190600101919050555060405180606001604052803373ffffffffffffffffffffffffffffffffffffffff1681526020016001151581526020016000151581525060016000600354815260200190815260200160002060008201518160000160006101000a81548173ffffffffffffffffffffffffffffffffffffffff021916908373ffffffffffffffffffffffffffffffffffffffff16021790555060208201518160000160146101000a81548160ff02191690831515021790555060408201518160000160156101000a81548160ff021916908315150217905550905050600354600260003373ffffffffffffffffffffffffffffffffffffffff1673ffffffffffffffffffffffffffffffffffffffff168152602001908152602001600020819055507f3c21235b550c9a9298b450fe7791119feae603daef9055f7b25aada84c5f691260035442604051808381526020018281526020019250505060405180910390a1565b6000809054906101000a900473ffffffffffffffffffffffffffffffffffffffff1673ffffffffffffffffffffffffffffffffffffffff163373ffffffffffffffffffffffffffffffffffffffff1614610e7e576040517f08c379a000000000000000000000000000000000000000000000000000000000815260040180806020018281038252601a8152602001807f4f6e6c79206d616e616765722063616e2063616c6c207468697300000000000081525060200191505060405180910390fd5b8073ffffffffffffffffffffffffffffffffffffffff166000809054906101000a900473ffffffffffffffffffffffffffffffffffffffff1673ffffffffffffffffffffffffffffffffffffffff167fc64707e618a83637fc41ad1e3aa4242bd5fdd353f3d60bc0faf40db0d7d8607860405160405180910390a3806000806101000a81548173ffffffffffffffffffffffffffffffffffffffff021916908373ffffffffffffffffffffffffffffffffffffffff16021790555050565b600060046000600560003373ffffffffffffffffffffffffffffffffffffffff1673ffffffffffffffffffffffffffffffffffffffff16815260200190815260200160002054815260200190815260200160002060000160149054906101000a900460ff16610faa57600080fd5b600560003373ffffffffffffffffffffffffffffffffffffffff1673ffffffffffffffffffffffffffffffffffffffff16815260200190815260200160002054905090565b60016000600260003373ffffffffffffffffffffffffffffffffffffffff1673ffffffffffffffffffffffffffffffffffffffff16815260200190815260200160002054815260200190815260200160002060000160159054906101000a900460ff1661105b57600080fd5b7fedb83938300e58842dea7e5d9fe8fd306d51afa225c35cf187d445397b0944f8600260003373ffffffffffffffffffffffffffffffffffffffff1673ffffffffffffffffffffffffffffffffffffffff168152602001908152602001600020548284426040518085815260200184815260200183815260200182815260200194505050505060405180910390a15050565b6000606060046000600560003373ffffffffffffffffffffffffffffffffffffffff1673ffffffffffffffffffffffffffffffffffffffff16815260200190815260200160002054815260200190815260200160002060000160159054906101000a900460ff1661115d57600080fd5b60006008600086815260200190815260200160002090503373ffffffffffffffffffffffffffffffffffffffff16600460008360000154815260200190815260200160002060000160009054906101000a900473ffffffffffffffffffffffffffffffffffffffff1673ffffffffffffffffffffffffffffffffffffffff16146111e657600080fd5b600081600601600086815260200190815260200160002060000154905060608260060160008781526020019081526020016000206001018054600181600116156101000203166002900480601f0160208091040260200160405190810160405280929190818152602001828054600181600116156101000203166002900480156112b15780601f10611286576101008083540402835291602001916112b1565b820191906000526020600020905b81548152906001019060200180831161129457829003601f168201915b505050505090508181945094505050509250929050565b60046000600560003373ffffffffffffffffffffffffffffffffffffffff1673ffffffffffffffffffffffffffffffffffffffff16815260200190815260200160002054815260200190815260200160002060000160159054906101000a900460ff1661133457600080fd5b7f85b809fc0ce446cc5842a89f7efe58514a666e6d51ff861ce0c338e06c3f8b96600560003373ffffffffffffffffffffffffffffffffffffffff1673ffffffffffffffffffffffffffffffffffffffff168152602001908152602001600020548284426040518085815260200184815260200183815260200182815260200194505050505060405180910390a15050565b60046000600560003373ffffffffffffffffffffffffffffffffffffffff1673ffffffffffffffffffffffffffffffffffffffff16815260200190815260200160002054815260200190815260200160002060000160159054906101000a900460ff1661143257600080fd5b600060086000848152602001908152602001600020905080600401600081548092919060010191905055506040518060600160405280600560003373ffffffffffffffffffffffffffffffffffffffff1673ffffffffffffffffffffffffffffffffffffffff16815260200190815260200160002054815260200183815260200142815250816006016000836004015481526020019081526020016000206000820151816000015560208201518160010190805190602001906114f692919061158f565b50604082015181600201559050507f3f8ffb28d8e2282c3991434b80ff431f320f37cba9161e7b65557f9e0340ed3a600560003373ffffffffffffffffffffffffffffffffffffffff1673ffffffffffffffffffffffffffffffffffffffff16815260200190815260200160002054844260405180848152602001838152602001828152602001935050505060405180910390a1505050565b828054600181600116156101000203166002900490600052602060002090601f016020900481019282601f106115d057805160ff19168380011785556115fe565b828001600101855582156115fe579182015b828111156115fd5782518255916020019190600101906115e2565b5b50905061160b919061160f565b5090565b61163191905b8082111561162d576000816000905550600101611615565b5090565b9056fea265627a7a72315820fcc082b9163df0fe433b70a3c3e2f9e3de87dce308d5e5412731fe6f12306f5464736f6c63430005100032",
  "source": "pragma solidity >=0.5.0 <0.7.0;\r\nimport \"./MemberContract.sol\";\r\n// SPDX-License-Identifier: SJTU-IST\r\ncontract AuthorityContract is MemberContract{\r\n    event Q_hasPatient(uint _hospitalId,uint _needAmount,uint _patientId,uint _timestamp,uint _duration);\r\n    event AskAuthorize(uint _hospitalId,uint _needAmount,uint _patientId,uint _timestamp);\r\n    event PatientAuthorize(uint _patientId,uint _needAmount,uint _hospitalId,uint _timestamp);\r\n    event ReturnURLs(uint _hospitalId,uint _needAmount,uint _timestamp);\r\n    //dataneeder struct\r\n    struct DataNeeder{\r\n        uint hospitalId;\r\n        uint patientId;\r\n        uint datatype;\r\n        uint duration;\r\n        uint currentNum;\r\n        uint timestamp;\r\n        mapping(uint => DataProvider) providemap;\r\n    }\r\n    //dataprovider struct\r\n    struct DataProvider {\r\n        uint hospitalId;\r\n        string url;\r\n        uint timestamp;\r\n    }\r\n    uint needAmount = 0;\r\n    mapping(uint =>DataNeeder) needmap;\r\n    //Hospital_A creates new dataneeder\r\n    function NewDataNeeder(uint _patientId,uint _datatype,uint _duration) public {\r\n        require(hospitals[hospitalAddress2Id[msg.sender]].isVerified);\r\n        needAmount++;\r\n        needmap[needAmount]=DataNeeder(hospitalAddress2Id[msg.sender],_patientId,_datatype,_duration,0,now);\r\n        emit Q_hasPatient(hospitalAddress2Id[msg.sender],needAmount,_patientId,now,_duration);\r\n    }\r\n    //After checking database, Hospital_B asks patient's Authority\r\n    function AskPatientAuthority(uint _patientId,uint _needAmount) public {\r\n        require(hospitals[hospitalAddress2Id[msg.sender]].isVerified);\r\n        emit AskAuthorize(hospitalAddress2Id[msg.sender],_needAmount,_patientId,now);\r\n    }\r\n    //Patient Authorize to the need \r\n    function PatientAuthorize2need(uint _hospitalId,uint _needAmount) public {\r\n        require(patients[patientAddress2Id[msg.sender]].isVerified);\r\n        emit PatientAuthorize(patientAddress2Id[msg.sender],_needAmount,_hospitalId,now);\r\n    }\r\n    //Hospital_B provides URLs to the need\r\n    function ProvideData(uint _needAmount,string memory _url) public {\r\n        require(hospitals[hospitalAddress2Id[msg.sender]].isVerified);\r\n        DataNeeder storage _dataNeeder = needmap[_needAmount];\r\n        _dataNeeder.currentNum++;\r\n        _dataNeeder.providemap[_dataNeeder.currentNum]=DataProvider(hospitalAddress2Id[msg.sender], _url,now);\r\n        emit ReturnURLs(hospitalAddress2Id[msg.sender],_needAmount,now);\r\n    }\r\n    //Hospital_A gets URLs from the need\r\n    function getURLByDataNeeder(uint _needAmount,uint urlId) public view returns(uint,string memory) {\r\n        require(hospitals[hospitalAddress2Id[msg.sender]].isVerified);\r\n        DataNeeder storage _dataNeeder = needmap[_needAmount];\r\n        require(hospitals[_dataNeeder.hospitalId].hospitalAddress==msg.sender);\r\n        uint _providedHospitalId=_dataNeeder.providemap[urlId].hospitalId;\r\n        string memory _url=(_dataNeeder.providemap[urlId]).url;\r\n        return(_providedHospitalId,_url); \r\n    }\r\n}\r\n",
  "sourcePath": "D:/XIEHOU/study/PRP/Dapp/defi_tutorial-starter-code/src/contracts/AuthorityContract.sol",
  "compiler": {
    "name": "solc",
    "version": "0.5.16+commit.9c3226ce.Emscripten.clang"
  },
  "schemaVersion": "3.2.3",
  "updatedAt": "2021-02-11T10:14:25.798Z",
  "networkType": "ethereum",
  "devdoc": {
    "methods": {}
  },
  "userdoc": {
    "methods": {}
  }
}