{
  "contractName": "MemberContract",
  "abi": [
    {
      "inputs": [],
      "payable": false,
      "stateMutability": "nonpayable",
      "type": "constructor"
    },
    {
      "anonymous": false,
      "inputs": [
        {
          "indexed": false,
          "internalType": "uint256",
          "name": "_hospitalId",
          "type": "uint256"
        },
        {
          "indexed": false,
          "internalType": "uint256",
          "name": "timestamp",
          "type": "uint256"
        }
      ],
      "name": "HospitalRegisterApply",
      "type": "event"
    },
    {
      "anonymous": false,
      "inputs": [
        {
          "indexed": false,
          "internalType": "uint256",
          "name": "_hospitalId",
          "type": "uint256"
        },
        {
          "indexed": false,
          "internalType": "uint256",
          "name": "timestamp",
          "type": "uint256"
        }
      ],
      "name": "HospitalRegisterSuccess",
      "type": "event"
    },
    {
      "anonymous": false,
      "inputs": [
        {
          "indexed": true,
          "internalType": "address",
          "name": "oldManager",
          "type": "address"
        },
        {
          "indexed": true,
          "internalType": "address",
          "name": "newManager",
          "type": "address"
        }
      ],
      "name": "ManagerSet",
      "type": "event"
    },
    {
      "anonymous": false,
      "inputs": [
        {
          "indexed": false,
          "internalType": "uint256",
          "name": "_patientId",
          "type": "uint256"
        },
        {
          "indexed": false,
          "internalType": "uint256",
          "name": "timestamp",
          "type": "uint256"
        }
      ],
      "name": "PatientRegisterApply",
      "type": "event"
    },
    {
      "anonymous": false,
      "inputs": [
        {
          "indexed": false,
          "internalType": "uint256",
          "name": "_patientId",
          "type": "uint256"
        },
        {
          "indexed": false,
          "internalType": "uint256",
          "name": "timestamp",
          "type": "uint256"
        }
      ],
      "name": "PatientRegisterSuccess",
      "type": "event"
    },
    {
      "constant": false,
      "inputs": [],
      "name": "PatientRegister",
      "outputs": [],
      "payable": false,
      "stateMutability": "nonpayable",
      "type": "function"
    },
    {
      "constant": false,
      "inputs": [],
      "name": "HospitalRegister",
      "outputs": [],
      "payable": false,
      "stateMutability": "nonpayable",
      "type": "function"
    },
    {
      "constant": true,
      "inputs": [],
      "name": "getPatientIdByAddress",
      "outputs": [
        {
          "internalType": "uint256",
          "name": "",
          "type": "uint256"
        }
      ],
      "payable": false,
      "stateMutability": "view",
      "type": "function"
    },
    {
      "constant": true,
      "inputs": [],
      "name": "getHospitalIdByAddress",
      "outputs": [
        {
          "internalType": "uint256",
          "name": "",
          "type": "uint256"
        }
      ],
      "payable": false,
      "stateMutability": "view",
      "type": "function"
    },
    {
      "constant": false,
      "inputs": [
        {
          "internalType": "address",
          "name": "newManager",
          "type": "address"
        }
      ],
      "name": "changeManager",
      "outputs": [],
      "payable": false,
      "stateMutability": "nonpayable",
      "type": "function"
    },
    {
      "constant": false,
      "inputs": [
        {
          "internalType": "uint256",
          "name": "_patientId",
          "type": "uint256"
        }
      ],
      "name": "verifyPatient",
      "outputs": [],
      "payable": false,
      "stateMutability": "nonpayable",
      "type": "function"
    },
    {
      "constant": false,
      "inputs": [
        {
          "internalType": "uint256",
          "name": "_hospitalId",
          "type": "uint256"
        }
      ],
      "name": "verifyHospital",
      "outputs": [],
      "payable": false,
      "stateMutability": "nonpayable",
      "type": "function"
    }
  ],
  "bytecode": "0x60806040526000600355600060065534801561001a57600080fd5b50336000806101000a81548173ffffffffffffffffffffffffffffffffffffffff021916908373ffffffffffffffffffffffffffffffffffffffff1602179055506000809054906101000a900473ffffffffffffffffffffffffffffffffffffffff1673ffffffffffffffffffffffffffffffffffffffff16600073ffffffffffffffffffffffffffffffffffffffff167fc64707e618a83637fc41ad1e3aa4242bd5fdd353f3d60bc0faf40db0d7d8607860405160405180910390a3610be2806100e66000396000f3fe608060405234801561001057600080fd5b506004361061007d5760003560e01c80639a837c971161005b5780639a837c97146100e8578063a27408f514610106578063a3fbbaae14610110578063a4705d64146101545761007d565b80632cf319281461008257806373c890fa146100b05780638c4b773d146100ba575b600080fd5b6100ae6004803603602081101561009857600080fd5b8101908080359060200190929190505050610172565b005b6100b86102d2565b005b6100e6600480360360208110156100d057600080fd5b810190808035906020019092919050505061051d565b005b6100f061067c565b6040518082815260200191505060405180910390f35b61010e61072f565b005b6101526004803603602081101561012657600080fd5b81019080803573ffffffffffffffffffffffffffffffffffffffff16906020019092919050505061097a565b005b61015c610afa565b6040518082815260200191505060405180910390f35b6000809054906101000a900473ffffffffffffffffffffffffffffffffffffffff1673ffffffffffffffffffffffffffffffffffffffff163373ffffffffffffffffffffffffffffffffffffffff1614610234576040517f08c379a000000000000000000000000000000000000000000000000000000000815260040180806020018281038252601a8152602001807f4f6e6c79206d616e616765722063616e2063616c6c207468697300000000000081525060200191505060405180910390fd5b6004600082815260200190815260200160002060000160149054906101000a900460ff1661026157600080fd5b60016004600083815260200190815260200160002060000160156101000a81548160ff0219169083151502179055507f0ce4c127b08cec9e0844159f283f9c24b04a39fcfe732bb61dac965e53e40f628142604051808381526020018281526020019250505060405180910390a150565b60016000600260003373ffffffffffffffffffffffffffffffffffffffff1673ffffffffffffffffffffffffffffffffffffffff16815260200190815260200160002054815260200190815260200160002060000160149054906101000a900460ff161561033f57600080fd5b60046000600560003373ffffffffffffffffffffffffffffffffffffffff1673ffffffffffffffffffffffffffffffffffffffff16815260200190815260200160002054815260200190815260200160002060000160149054906101000a900460ff16156103ac57600080fd5b60066000815480929190600101919050555060405180606001604052803373ffffffffffffffffffffffffffffffffffffffff1681526020016001151581526020016000151581525060046000600654815260200190815260200160002060008201518160000160006101000a81548173ffffffffffffffffffffffffffffffffffffffff021916908373ffffffffffffffffffffffffffffffffffffffff16021790555060208201518160000160146101000a81548160ff02191690831515021790555060408201518160000160156101000a81548160ff021916908315150217905550905050600654600560003373ffffffffffffffffffffffffffffffffffffffff1673ffffffffffffffffffffffffffffffffffffffff168152602001908152602001600020819055507fc124201338050313a2652ffbe40e0604be2803257508dd3e437f17485818e93260065442604051808381526020018281526020019250505060405180910390a1565b6000809054906101000a900473ffffffffffffffffffffffffffffffffffffffff1673ffffffffffffffffffffffffffffffffffffffff163373ffffffffffffffffffffffffffffffffffffffff16146105df576040517f08c379a000000000000000000000000000000000000000000000000000000000815260040180806020018281038252601a8152602001807f4f6e6c79206d616e616765722063616e2063616c6c207468697300000000000081525060200191505060405180910390fd5b6001600082815260200190815260200160002060000160149054906101000a900460ff1661060c57600080fd5b600180600083815260200190815260200160002060000160156101000a81548160ff0219169083151502179055507f02583f1eec62e4196ffc2e0cafbc045b8d404e5dbc35559646a69ab4adb3b0f88142604051808381526020018281526020019250505060405180910390a150565b600060016000600260003373ffffffffffffffffffffffffffffffffffffffff1673ffffffffffffffffffffffffffffffffffffffff16815260200190815260200160002054815260200190815260200160002060000160149054906101000a900460ff166106ea57600080fd5b600260003373ffffffffffffffffffffffffffffffffffffffff1673ffffffffffffffffffffffffffffffffffffffff16815260200190815260200160002054905090565b60016000600260003373ffffffffffffffffffffffffffffffffffffffff1673ffffffffffffffffffffffffffffffffffffffff16815260200190815260200160002054815260200190815260200160002060000160149054906101000a900460ff161561079c57600080fd5b60046000600560003373ffffffffffffffffffffffffffffffffffffffff1673ffffffffffffffffffffffffffffffffffffffff16815260200190815260200160002054815260200190815260200160002060000160149054906101000a900460ff161561080957600080fd5b60036000815480929190600101919050555060405180606001604052803373ffffffffffffffffffffffffffffffffffffffff1681526020016001151581526020016000151581525060016000600354815260200190815260200160002060008201518160000160006101000a81548173ffffffffffffffffffffffffffffffffffffffff021916908373ffffffffffffffffffffffffffffffffffffffff16021790555060208201518160000160146101000a81548160ff02191690831515021790555060408201518160000160156101000a81548160ff021916908315150217905550905050600354600260003373ffffffffffffffffffffffffffffffffffffffff1673ffffffffffffffffffffffffffffffffffffffff168152602001908152602001600020819055507f3c21235b550c9a9298b450fe7791119feae603daef9055f7b25aada84c5f691260035442604051808381526020018281526020019250505060405180910390a1565b6000809054906101000a900473ffffffffffffffffffffffffffffffffffffffff1673ffffffffffffffffffffffffffffffffffffffff163373ffffffffffffffffffffffffffffffffffffffff1614610a3c576040517f08c379a000000000000000000000000000000000000000000000000000000000815260040180806020018281038252601a8152602001807f4f6e6c79206d616e616765722063616e2063616c6c207468697300000000000081525060200191505060405180910390fd5b8073ffffffffffffffffffffffffffffffffffffffff166000809054906101000a900473ffffffffffffffffffffffffffffffffffffffff1673ffffffffffffffffffffffffffffffffffffffff167fc64707e618a83637fc41ad1e3aa4242bd5fdd353f3d60bc0faf40db0d7d8607860405160405180910390a3806000806101000a81548173ffffffffffffffffffffffffffffffffffffffff021916908373ffffffffffffffffffffffffffffffffffffffff16021790555050565b600060046000600560003373ffffffffffffffffffffffffffffffffffffffff1673ffffffffffffffffffffffffffffffffffffffff16815260200190815260200160002054815260200190815260200160002060000160149054906101000a900460ff16610b6857600080fd5b600560003373ffffffffffffffffffffffffffffffffffffffff1673ffffffffffffffffffffffffffffffffffffffff1681526020019081526020016000205490509056fea265627a7a72315820b80a72fd07dac3b6368eb0508f875ff14b301952d73798e651fc02198847ee6164736f6c63430005100032",
  "source": "pragma solidity >=0.5.0 <0.7.0;\r\n// SPDX-License-Identifier: SJTU-IST\r\ncontract MemberContract {\r\n    address private manager;\r\n    event ManagerSet(address indexed oldManager, address indexed newManager);\r\n    event PatientRegisterSuccess(uint _patientId,uint timestamp);\r\n    event HospitalRegisterSuccess(uint _hospitalId,uint timestamp);\r\n    event PatientRegisterApply(uint _patientId,uint timestamp);\r\n    event HospitalRegisterApply(uint _hospitalId,uint timestamp);\r\n    constructor() public  {\r\n        manager = msg.sender;\r\n        emit ManagerSet(address(0), manager);\r\n    }\r\n    modifier OnlyManager{\r\n        require(msg.sender==manager,\"Only manager can call this\");\r\n        _;\r\n    }\r\n\r\n    // patient struct\r\n    struct Patient{\r\n        address patientAddress;\r\n        bool isValid;\r\n        bool isVerified;\r\n    }\r\n    mapping(uint => Patient) patients;\r\n    mapping(address =>uint) patientAddress2Id;\r\n    uint patientAmount = 0;\r\n\r\n    // hospital struct\r\n    struct Hospital{\r\n        address hospitalAddress;\r\n        bool isValid;\r\n        bool isVerified;\r\n    }\r\n    mapping(uint => Hospital)  hospitals; \r\n    mapping(address => uint)  hospitalAddress2Id;\r\n    uint hospitalAmount = 0;\r\n\r\n    modifier OnlyUnRegister(){\r\n        require(!patients[patientAddress2Id[msg.sender]].isValid);\r\n        require(!hospitals[hospitalAddress2Id[msg.sender]].isValid);\r\n        _;\r\n    }\r\n\r\n    function PatientRegister() public OnlyUnRegister{\r\n        patientAmount++;\r\n        patients[patientAmount] = Patient(msg.sender,true,false);\r\n        patientAddress2Id[msg.sender]=patientAmount;\r\n        emit PatientRegisterApply(patientAmount,now);\r\n    }\r\n    \r\n    function HospitalRegister() public OnlyUnRegister{\r\n        hospitalAmount++;\r\n        hospitals[hospitalAmount] = Hospital(msg.sender,true,false);\r\n        hospitalAddress2Id[msg.sender]=hospitalAmount;\r\n        emit HospitalRegisterApply(hospitalAmount,now);\r\n    }\r\n    function getPatientIdByAddress() public view returns(uint){\r\n        require(patients[patientAddress2Id[msg.sender]].isValid);\r\n        return patientAddress2Id[msg.sender];\r\n    }\r\n    function getHospitalIdByAddress() public view returns(uint){\r\n        require(hospitals[hospitalAddress2Id[msg.sender]].isValid);\r\n        return hospitalAddress2Id[msg.sender];\r\n    }\r\n    function changeManager(address newManager) public OnlyManager {\r\n        emit ManagerSet(manager, newManager);\r\n        manager = newManager;\r\n    }\r\n    function getManager() private view returns (address) {\r\n        return manager;\r\n    }\r\n    function verifyPatient (uint _patientId) public OnlyManager{\r\n        require(patients[_patientId].isValid);\r\n        patients[_patientId].isVerified=true;\r\n        emit PatientRegisterSuccess(_patientId,now);\r\n    }\r\n    function verifyHospital(uint _hospitalId) public OnlyManager{\r\n        require(hospitals[_hospitalId].isValid);\r\n        hospitals[_hospitalId].isVerified=true;\r\n        emit HospitalRegisterSuccess(_hospitalId,now);\r\n    }\r\n}\r\n",
  "sourcePath": "D:\\XIEHOU\\study\\PRP\\Dapp\\defi_tutorial-starter-code\\src\\contracts\\MemberContract.sol",
  "compiler": {
    "name": "solc",
    "version": "0.5.16+commit.9c3226ce.Emscripten.clang"
  },
  "schemaVersion": "3.2.3",
  "updatedAt": "2021-02-11T10:14:25.784Z",
  "networkType": "ethereum",
  "devdoc": {
    "methods": {}
  },
  "userdoc": {
    "methods": {}
  }
}