{
  "contractName": "MemberContract",
  "abi": [
    {
      "inputs": [],
      "payable": false,
      "stateMutability": "nonpayable",
      "type": "constructor"
    },
    {
      "anonymous": false,
      "inputs": [
        {
          "indexed": false,
          "internalType": "uint256",
          "name": "_hospitalId",
          "type": "uint256"
        },
        {
          "indexed": false,
          "internalType": "uint256",
          "name": "timestamp",
          "type": "uint256"
        }
      ],
      "name": "HospitalRegisterApply",
      "type": "event"
    },
    {
      "anonymous": false,
      "inputs": [
        {
          "indexed": false,
          "internalType": "uint256",
          "name": "_hospitalId",
          "type": "uint256"
        },
        {
          "indexed": false,
          "internalType": "uint256",
          "name": "timestamp",
          "type": "uint256"
        }
      ],
      "name": "HospitalRegisterSuccess",
      "type": "event"
    },
    {
      "anonymous": false,
      "inputs": [
        {
          "indexed": true,
          "internalType": "address",
          "name": "oldManager",
          "type": "address"
        },
        {
          "indexed": true,
          "internalType": "address",
          "name": "newManager",
          "type": "address"
        }
      ],
      "name": "ManagerSet",
      "type": "event"
    },
    {
      "anonymous": false,
      "inputs": [
        {
          "indexed": false,
          "internalType": "uint256",
          "name": "_patientId",
          "type": "uint256"
        },
        {
          "indexed": false,
          "internalType": "uint256",
          "name": "timestamp",
          "type": "uint256"
        }
      ],
      "name": "PatientRegisterApply",
      "type": "event"
    },
    {
      "anonymous": false,
      "inputs": [
        {
          "indexed": false,
          "internalType": "uint256",
          "name": "_patientId",
          "type": "uint256"
        },
        {
          "indexed": false,
          "internalType": "uint256",
          "name": "timestamp",
          "type": "uint256"
        }
      ],
      "name": "PatientRegisterSuccess",
      "type": "event"
    },
    {
      "constant": true,
      "inputs": [],
      "name": "GetPatientBlockNum",
      "outputs": [
        {
          "internalType": "uint256",
          "name": "",
          "type": "uint256"
        }
      ],
      "payable": false,
      "stateMutability": "view",
      "type": "function"
    },
    {
      "constant": true,
      "inputs": [],
      "name": "GetHospitalBlockNum",
      "outputs": [
        {
          "internalType": "uint256",
          "name": "",
          "type": "uint256"
        }
      ],
      "payable": false,
      "stateMutability": "view",
      "type": "function"
    },
    {
      "constant": false,
      "inputs": [],
      "name": "PatientRegister",
      "outputs": [],
      "payable": false,
      "stateMutability": "nonpayable",
      "type": "function"
    },
    {
      "constant": false,
      "inputs": [],
      "name": "HospitalRegister",
      "outputs": [],
      "payable": false,
      "stateMutability": "nonpayable",
      "type": "function"
    },
    {
      "constant": true,
      "inputs": [],
      "name": "getPatientIdByAddress",
      "outputs": [
        {
          "internalType": "uint256",
          "name": "",
          "type": "uint256"
        }
      ],
      "payable": false,
      "stateMutability": "view",
      "type": "function"
    },
    {
      "constant": true,
      "inputs": [],
      "name": "getHospitalIdByAddress",
      "outputs": [
        {
          "internalType": "uint256",
          "name": "",
          "type": "uint256"
        }
      ],
      "payable": false,
      "stateMutability": "view",
      "type": "function"
    },
    {
      "constant": false,
      "inputs": [
        {
          "internalType": "address",
          "name": "newManager",
          "type": "address"
        }
      ],
      "name": "changeManager",
      "outputs": [],
      "payable": false,
      "stateMutability": "nonpayable",
      "type": "function"
    },
    {
      "constant": true,
      "inputs": [],
      "name": "isManager",
      "outputs": [
        {
          "internalType": "uint256",
          "name": "",
          "type": "uint256"
        }
      ],
      "payable": false,
      "stateMutability": "view",
      "type": "function"
    },
    {
      "constant": false,
      "inputs": [
        {
          "internalType": "uint256",
          "name": "_patientId",
          "type": "uint256"
        }
      ],
      "name": "verifyPatient",
      "outputs": [],
      "payable": false,
      "stateMutability": "nonpayable",
      "type": "function"
    },
    {
      "constant": false,
      "inputs": [
        {
          "internalType": "uint256",
          "name": "_hospitalId",
          "type": "uint256"
        }
      ],
      "name": "verifyHospital",
      "outputs": [],
      "payable": false,
      "stateMutability": "nonpayable",
      "type": "function"
    },
    {
      "constant": false,
      "inputs": [
        {
          "internalType": "uint256",
          "name": "_newBlockNum",
          "type": "uint256"
        }
      ],
      "name": "setPBlockNum",
      "outputs": [],
      "payable": false,
      "stateMutability": "nonpayable",
      "type": "function"
    },
    {
      "constant": false,
      "inputs": [
        {
          "internalType": "uint256",
          "name": "_newBlockNum",
          "type": "uint256"
        }
      ],
      "name": "setHBlockNum",
      "outputs": [],
      "payable": false,
      "stateMutability": "nonpayable",
      "type": "function"
    }
  ],
  "bytecode": "0x6080604052600060035560006004556000600755600060085534801561002457600080fd5b50336000806101000a81548173ffffffffffffffffffffffffffffffffffffffff021916908373ffffffffffffffffffffffffffffffffffffffff1602179055506000809054906101000a900473ffffffffffffffffffffffffffffffffffffffff1673ffffffffffffffffffffffffffffffffffffffff16600073ffffffffffffffffffffffffffffffffffffffff167fc64707e618a83637fc41ad1e3aa4242bd5fdd353f3d60bc0faf40db0d7d8607860405160405180910390a3611067806100f06000396000f3fe608060405234801561001057600080fd5b50600436106100b45760003560e01c806393d9e6911161007157806393d9e691146101995780639a837c97146101b7578063a27408f5146101d5578063a3fbbaae146101df578063a4705d6414610223578063c56a3e8814610241576100b4565b80632cf31928146100b957806341cc2d59146100e757806352e221351461011557806373c890fa14610133578063811cb77a1461013d5780638c4b773d1461016b575b600080fd5b6100e5600480360360208110156100cf57600080fd5b810190808035906020019092919050505061025f565b005b610113600480360360208110156100fd57600080fd5b81019080803590602001909291905050506103bf565b005b61011d61048b565b6040518082815260200191505060405180910390f35b61013b610557565b005b6101696004803603602081101561015357600080fd5b81019080803590602001909291905050506107a2565b005b6101976004803603602081101561018157600080fd5b810190808035906020019092919050505061086e565b005b6101a16109cd565b6040518082815260200191505060405180910390f35b6101bf610a99565b6040518082815260200191505060405180910390f35b6101dd610b4c565b005b610221600480360360208110156101f557600080fd5b81019080803573ffffffffffffffffffffffffffffffffffffffff169060200190929190505050610d97565b005b61022b610f17565b6040518082815260200191505060405180910390f35b610249610fca565b6040518082815260200191505060405180910390f35b6000809054906101000a900473ffffffffffffffffffffffffffffffffffffffff1673ffffffffffffffffffffffffffffffffffffffff163373ffffffffffffffffffffffffffffffffffffffff1614610321576040517f08c379a000000000000000000000000000000000000000000000000000000000815260040180806020018281038252601a8152602001807f4f6e6c79206d616e616765722063616e2063616c6c207468697300000000000081525060200191505060405180910390fd5b6005600082815260200190815260200160002060000160149054906101000a900460ff1661034e57600080fd5b60016005600083815260200190815260200160002060000160156101000a81548160ff0219169083151502179055507f0ce4c127b08cec9e0844159f283f9c24b04a39fcfe732bb61dac965e53e40f628142604051808381526020018281526020019250505060405180910390a150565b6000809054906101000a900473ffffffffffffffffffffffffffffffffffffffff1673ffffffffffffffffffffffffffffffffffffffff163373ffffffffffffffffffffffffffffffffffffffff1614610481576040517f08c379a000000000000000000000000000000000000000000000000000000000815260040180806020018281038252601a8152602001807f4f6e6c79206d616e616765722063616e2063616c6c207468697300000000000081525060200191505060405180910390fd5b8060088190555050565b60008060009054906101000a900473ffffffffffffffffffffffffffffffffffffffff1673ffffffffffffffffffffffffffffffffffffffff163373ffffffffffffffffffffffffffffffffffffffff161461054f576040517f08c379a000000000000000000000000000000000000000000000000000000000815260040180806020018281038252601a8152602001807f4f6e6c79206d616e616765722063616e2063616c6c207468697300000000000081525060200191505060405180910390fd5b600854905090565b60016000600260003373ffffffffffffffffffffffffffffffffffffffff1673ffffffffffffffffffffffffffffffffffffffff16815260200190815260200160002054815260200190815260200160002060000160149054906101000a900460ff16156105c457600080fd5b60056000600660003373ffffffffffffffffffffffffffffffffffffffff1673ffffffffffffffffffffffffffffffffffffffff16815260200190815260200160002054815260200190815260200160002060000160149054906101000a900460ff161561063157600080fd5b60076000815480929190600101919050555060405180606001604052803373ffffffffffffffffffffffffffffffffffffffff1681526020016001151581526020016000151581525060056000600754815260200190815260200160002060008201518160000160006101000a81548173ffffffffffffffffffffffffffffffffffffffff021916908373ffffffffffffffffffffffffffffffffffffffff16021790555060208201518160000160146101000a81548160ff02191690831515021790555060408201518160000160156101000a81548160ff021916908315150217905550905050600754600660003373ffffffffffffffffffffffffffffffffffffffff1673ffffffffffffffffffffffffffffffffffffffff168152602001908152602001600020819055507fc124201338050313a2652ffbe40e0604be2803257508dd3e437f17485818e93260075442604051808381526020018281526020019250505060405180910390a1565b6000809054906101000a900473ffffffffffffffffffffffffffffffffffffffff1673ffffffffffffffffffffffffffffffffffffffff163373ffffffffffffffffffffffffffffffffffffffff1614610864576040517f08c379a000000000000000000000000000000000000000000000000000000000815260040180806020018281038252601a8152602001807f4f6e6c79206d616e616765722063616e2063616c6c207468697300000000000081525060200191505060405180910390fd5b8060048190555050565b6000809054906101000a900473ffffffffffffffffffffffffffffffffffffffff1673ffffffffffffffffffffffffffffffffffffffff163373ffffffffffffffffffffffffffffffffffffffff1614610930576040517f08c379a000000000000000000000000000000000000000000000000000000000815260040180806020018281038252601a8152602001807f4f6e6c79206d616e616765722063616e2063616c6c207468697300000000000081525060200191505060405180910390fd5b6001600082815260200190815260200160002060000160149054906101000a900460ff1661095d57600080fd5b600180600083815260200190815260200160002060000160156101000a81548160ff0219169083151502179055507f02583f1eec62e4196ffc2e0cafbc045b8d404e5dbc35559646a69ab4adb3b0f88142604051808381526020018281526020019250505060405180910390a150565b60008060009054906101000a900473ffffffffffffffffffffffffffffffffffffffff1673ffffffffffffffffffffffffffffffffffffffff163373ffffffffffffffffffffffffffffffffffffffff1614610a91576040517f08c379a000000000000000000000000000000000000000000000000000000000815260040180806020018281038252601a8152602001807f4f6e6c79206d616e616765722063616e2063616c6c207468697300000000000081525060200191505060405180910390fd5b600454905090565b600060016000600260003373ffffffffffffffffffffffffffffffffffffffff1673ffffffffffffffffffffffffffffffffffffffff16815260200190815260200160002054815260200190815260200160002060000160149054906101000a900460ff16610b0757600080fd5b600260003373ffffffffffffffffffffffffffffffffffffffff1673ffffffffffffffffffffffffffffffffffffffff16815260200190815260200160002054905090565b60016000600260003373ffffffffffffffffffffffffffffffffffffffff1673ffffffffffffffffffffffffffffffffffffffff16815260200190815260200160002054815260200190815260200160002060000160149054906101000a900460ff1615610bb957600080fd5b60056000600660003373ffffffffffffffffffffffffffffffffffffffff1673ffffffffffffffffffffffffffffffffffffffff16815260200190815260200160002054815260200190815260200160002060000160149054906101000a900460ff1615610c2657600080fd5b60036000815480929190600101919050555060405180606001604052803373ffffffffffffffffffffffffffffffffffffffff1681526020016001151581526020016000151581525060016000600354815260200190815260200160002060008201518160000160006101000a81548173ffffffffffffffffffffffffffffffffffffffff021916908373ffffffffffffffffffffffffffffffffffffffff16021790555060208201518160000160146101000a81548160ff02191690831515021790555060408201518160000160156101000a81548160ff021916908315150217905550905050600354600260003373ffffffffffffffffffffffffffffffffffffffff1673ffffffffffffffffffffffffffffffffffffffff168152602001908152602001600020819055507f3c21235b550c9a9298b450fe7791119feae603daef9055f7b25aada84c5f691260035442604051808381526020018281526020019250505060405180910390a1565b6000809054906101000a900473ffffffffffffffffffffffffffffffffffffffff1673ffffffffffffffffffffffffffffffffffffffff163373ffffffffffffffffffffffffffffffffffffffff1614610e59576040517f08c379a000000000000000000000000000000000000000000000000000000000815260040180806020018281038252601a8152602001807f4f6e6c79206d616e616765722063616e2063616c6c207468697300000000000081525060200191505060405180910390fd5b8073ffffffffffffffffffffffffffffffffffffffff166000809054906101000a900473ffffffffffffffffffffffffffffffffffffffff1673ffffffffffffffffffffffffffffffffffffffff167fc64707e618a83637fc41ad1e3aa4242bd5fdd353f3d60bc0faf40db0d7d8607860405160405180910390a3806000806101000a81548173ffffffffffffffffffffffffffffffffffffffff021916908373ffffffffffffffffffffffffffffffffffffffff16021790555050565b600060056000600660003373ffffffffffffffffffffffffffffffffffffffff1673ffffffffffffffffffffffffffffffffffffffff16815260200190815260200160002054815260200190815260200160002060000160149054906101000a900460ff16610f8557600080fd5b600660003373ffffffffffffffffffffffffffffffffffffffff1673ffffffffffffffffffffffffffffffffffffffff16815260200190815260200160002054905090565b60008060009054906101000a900473ffffffffffffffffffffffffffffffffffffffff1673ffffffffffffffffffffffffffffffffffffffff163373ffffffffffffffffffffffffffffffffffffffff16141561102a576001905061102f565b600090505b9056fea265627a7a723158200b8c8226ce8de3a2e3605769ace7622f511570bebb9704df3fb8c6cf9aba796364736f6c63430005100032",
  "source": "pragma solidity >=0.5.0 <0.7.0;\r\n// SPDX-License-Identifier: SJTU-IST\r\ncontract MemberContract {\r\n    address private manager;\r\n    event ManagerSet(address indexed oldManager, address indexed newManager);\r\n    event PatientRegisterSuccess(uint _patientId,uint timestamp);\r\n    event HospitalRegisterSuccess(uint _hospitalId,uint timestamp);\r\n    event PatientRegisterApply(uint _patientId,uint timestamp);\r\n    event HospitalRegisterApply(uint _hospitalId,uint timestamp);\r\n    constructor() public  {\r\n        manager = msg.sender;\r\n        emit ManagerSet(address(0), manager);\r\n    }\r\n    modifier OnlyManager{\r\n        require(msg.sender==manager,\"Only manager can call this\");\r\n        _;\r\n    }\r\n\r\n    // patient struct\r\n    struct Patient{\r\n        address patientAddress;\r\n        bool isValid;\r\n        bool isVerified;\r\n    }\r\n    mapping(uint => Patient) patients;\r\n    mapping(address =>uint) patientAddress2Id;\r\n    uint patientAmount = 0;\r\n    uint patientRegisterApplyBlockNumber = 0;\r\n    function GetPatientBlockNum() public OnlyManager view returns(uint) {\r\n        return patientRegisterApplyBlockNumber;\r\n    }\r\n\r\n    // hospital struct\r\n    struct Hospital{\r\n        address hospitalAddress;\r\n        bool isValid;\r\n        bool isVerified;\r\n    }\r\n    mapping(uint => Hospital)  hospitals;\r\n    mapping(address => uint)  hospitalAddress2Id;\r\n    uint hospitalAmount = 0;\r\n    uint hospitalRegisterApplyBlockNumber = 0;\r\n    function GetHospitalBlockNum() public OnlyManager view returns(uint) {\r\n        return hospitalRegisterApplyBlockNumber;\r\n    }\r\n\r\n    modifier OnlyUnRegister(){\r\n        require(!patients[patientAddress2Id[msg.sender]].isValid);\r\n        require(!hospitals[hospitalAddress2Id[msg.sender]].isValid);\r\n        _;\r\n    }\r\n\r\n    function PatientRegister() public OnlyUnRegister{\r\n        patientAmount++;\r\n        patients[patientAmount] = Patient(msg.sender,true,false);\r\n        patientAddress2Id[msg.sender]=patientAmount;\r\n        emit PatientRegisterApply(patientAmount,now);\r\n    }\r\n\r\n    function HospitalRegister() public OnlyUnRegister{\r\n        hospitalAmount++;\r\n        hospitals[hospitalAmount] = Hospital(msg.sender,true,false);\r\n        hospitalAddress2Id[msg.sender]=hospitalAmount;\r\n        emit HospitalRegisterApply(hospitalAmount,now);\r\n    }\r\n    function getPatientIdByAddress() public view returns(uint){\r\n        require(patients[patientAddress2Id[msg.sender]].isValid);\r\n        return patientAddress2Id[msg.sender];\r\n    }\r\n    function getHospitalIdByAddress() public view returns(uint){\r\n        require(hospitals[hospitalAddress2Id[msg.sender]].isValid);\r\n        return hospitalAddress2Id[msg.sender];\r\n    }\r\n    function changeManager(address newManager) public OnlyManager {\r\n        emit ManagerSet(manager, newManager);\r\n        manager = newManager;\r\n    }\r\n    function getManager() private view returns (address) {\r\n        return manager;\r\n    }\r\n    function isManager() public view returns (uint) {\r\n        if (msg.sender == manager) {\r\n            return 1;\r\n        }\r\n        else return 0;\r\n    }\r\n    function verifyPatient (uint _patientId) public OnlyManager{\r\n        require(patients[_patientId].isValid);\r\n        patients[_patientId].isVerified=true;\r\n        emit PatientRegisterSuccess(_patientId,now);\r\n    }\r\n    function verifyHospital(uint _hospitalId) public OnlyManager{\r\n        require(hospitals[_hospitalId].isValid);\r\n        hospitals[_hospitalId].isVerified=true;\r\n        emit HospitalRegisterSuccess(_hospitalId,now);\r\n    }\r\n    function setPBlockNum(uint _newBlockNum) public OnlyManager {\r\n        patientRegisterApplyBlockNumber = _newBlockNum;\r\n    }\r\n    function setHBlockNum(uint _newBlockNum) public OnlyManager {\r\n        hospitalRegisterApplyBlockNumber = _newBlockNum;\r\n    }\r\n}\r\n",
  "sourcePath": "D:\\XIEHOU\\study\\PRP\\Hospital_Patient_Authorize_DAPP\\Hospital_Patient_Authorize_DAPP\\src\\contracts\\MemberContract.sol",
  "compiler": {
    "name": "solc",
    "version": "0.5.16+commit.9c3226ce.Emscripten.clang"
  },
  "schemaVersion": "3.2.3",
  "updatedAt": "2021-02-23T09:15:16.044Z",
  "networkType": "ethereum",
  "devdoc": {
    "methods": {}
  },
  "userdoc": {
    "methods": {}
  }
}