{
  "contractName": "MemberContract",
  "abi": [
    {
      "inputs": [],
      "payable": false,
      "stateMutability": "nonpayable",
      "type": "constructor"
    },
    {
      "anonymous": false,
      "inputs": [
        {
          "indexed": false,
          "internalType": "uint256",
          "name": "_toHospitalId",
          "type": "uint256"
        },
        {
          "indexed": false,
          "internalType": "uint256",
          "name": "_fromHospitalId",
          "type": "uint256"
        },
        {
          "indexed": false,
          "internalType": "uint256",
          "name": "_needAmount",
          "type": "uint256"
        },
        {
          "indexed": false,
          "internalType": "uint256",
          "name": "_patientId",
          "type": "uint256"
        },
        {
          "indexed": false,
          "internalType": "uint256",
          "name": "_timestamp",
          "type": "uint256"
        }
      ],
      "name": "AskAuthorize",
      "type": "event"
    },
    {
      "anonymous": false,
      "inputs": [
        {
          "indexed": false,
          "internalType": "uint256",
          "name": "_hospitalId",
          "type": "uint256"
        },
        {
          "indexed": false,
          "internalType": "uint256",
          "name": "timestamp",
          "type": "uint256"
        }
      ],
      "name": "HospitalRegisterApply",
      "type": "event"
    },
    {
      "anonymous": false,
      "inputs": [
        {
          "indexed": false,
          "internalType": "uint256",
          "name": "_hospitalId",
          "type": "uint256"
        },
        {
          "indexed": false,
          "internalType": "uint256",
          "name": "timestamp",
          "type": "uint256"
        }
      ],
      "name": "HospitalRegisterSuccess",
      "type": "event"
    },
    {
      "anonymous": false,
      "inputs": [
        {
          "indexed": true,
          "internalType": "address",
          "name": "oldManager",
          "type": "address"
        },
        {
          "indexed": true,
          "internalType": "address",
          "name": "newManager",
          "type": "address"
        }
      ],
      "name": "ManagerSet",
      "type": "event"
    },
    {
      "anonymous": false,
      "inputs": [
        {
          "indexed": false,
          "internalType": "uint256",
          "name": "_patientId",
          "type": "uint256"
        },
        {
          "indexed": false,
          "internalType": "uint256",
          "name": "_needAmount",
          "type": "uint256"
        },
        {
          "indexed": false,
          "internalType": "uint256",
          "name": "_toHospitalId",
          "type": "uint256"
        },
        {
          "indexed": false,
          "internalType": "uint256",
          "name": "_fromHospitalId",
          "type": "uint256"
        },
        {
          "indexed": false,
          "internalType": "uint256",
          "name": "_timestamp",
          "type": "uint256"
        }
      ],
      "name": "PatientAuthorize",
      "type": "event"
    },
    {
      "anonymous": false,
      "inputs": [
        {
          "indexed": false,
          "internalType": "uint256",
          "name": "_patientId",
          "type": "uint256"
        },
        {
          "indexed": false,
          "internalType": "uint256",
          "name": "timestamp",
          "type": "uint256"
        }
      ],
      "name": "PatientRegisterApply",
      "type": "event"
    },
    {
      "anonymous": false,
      "inputs": [
        {
          "indexed": false,
          "internalType": "uint256",
          "name": "_patientId",
          "type": "uint256"
        },
        {
          "indexed": false,
          "internalType": "uint256",
          "name": "timestamp",
          "type": "uint256"
        }
      ],
      "name": "PatientRegisterSuccess",
      "type": "event"
    },
    {
      "anonymous": false,
      "inputs": [
        {
          "indexed": false,
          "internalType": "uint256",
          "name": "_hospitalId",
          "type": "uint256"
        },
        {
          "indexed": false,
          "internalType": "uint256",
          "name": "_needAmount",
          "type": "uint256"
        },
        {
          "indexed": false,
          "internalType": "uint256",
          "name": "_patientId",
          "type": "uint256"
        },
        {
          "indexed": false,
          "internalType": "uint256",
          "name": "_timestamp",
          "type": "uint256"
        },
        {
          "indexed": false,
          "internalType": "uint256",
          "name": "_duration",
          "type": "uint256"
        }
      ],
      "name": "Q_hasPatient",
      "type": "event"
    },
    {
      "anonymous": false,
      "inputs": [
        {
          "indexed": false,
          "internalType": "uint256",
          "name": "_toHospitalId",
          "type": "uint256"
        },
        {
          "indexed": false,
          "internalType": "uint256",
          "name": "_fromHospitalId",
          "type": "uint256"
        },
        {
          "indexed": false,
          "internalType": "uint256",
          "name": "_needAmount",
          "type": "uint256"
        },
        {
          "indexed": false,
          "internalType": "uint256",
          "name": "_info",
          "type": "uint256"
        },
        {
          "indexed": false,
          "internalType": "uint256",
          "name": "_timestamp",
          "type": "uint256"
        }
      ],
      "name": "ReturnInfo",
      "type": "event"
    },
    {
      "constant": true,
      "inputs": [
        {
          "internalType": "uint256",
          "name": "_patientId",
          "type": "uint256"
        }
      ],
      "name": "PatientIsVerified",
      "outputs": [
        {
          "internalType": "bool",
          "name": "",
          "type": "bool"
        }
      ],
      "payable": false,
      "stateMutability": "view",
      "type": "function"
    },
    {
      "constant": true,
      "inputs": [],
      "name": "HospitalId",
      "outputs": [
        {
          "internalType": "uint256",
          "name": "",
          "type": "uint256"
        }
      ],
      "payable": false,
      "stateMutability": "view",
      "type": "function"
    },
    {
      "constant": true,
      "inputs": [
        {
          "internalType": "uint256",
          "name": "_hospitalId",
          "type": "uint256"
        }
      ],
      "name": "HospitalIsVerified",
      "outputs": [
        {
          "internalType": "bool",
          "name": "",
          "type": "bool"
        }
      ],
      "payable": false,
      "stateMutability": "view",
      "type": "function"
    },
    {
      "constant": false,
      "inputs": [],
      "name": "PatientRegister",
      "outputs": [],
      "payable": false,
      "stateMutability": "nonpayable",
      "type": "function"
    },
    {
      "constant": false,
      "inputs": [],
      "name": "HospitalRegister",
      "outputs": [],
      "payable": false,
      "stateMutability": "nonpayable",
      "type": "function"
    },
    {
      "constant": true,
      "inputs": [],
      "name": "getPatientIdByAddress",
      "outputs": [
        {
          "internalType": "uint256",
          "name": "",
          "type": "uint256"
        }
      ],
      "payable": false,
      "stateMutability": "view",
      "type": "function"
    },
    {
      "constant": true,
      "inputs": [],
      "name": "getHospitalIdByAddress",
      "outputs": [
        {
          "internalType": "uint256",
          "name": "",
          "type": "uint256"
        }
      ],
      "payable": false,
      "stateMutability": "view",
      "type": "function"
    },
    {
      "constant": false,
      "inputs": [
        {
          "internalType": "address",
          "name": "newManager",
          "type": "address"
        }
      ],
      "name": "changeManager",
      "outputs": [],
      "payable": false,
      "stateMutability": "nonpayable",
      "type": "function"
    },
    {
      "constant": true,
      "inputs": [],
      "name": "isManager",
      "outputs": [
        {
          "internalType": "uint256",
          "name": "",
          "type": "uint256"
        }
      ],
      "payable": false,
      "stateMutability": "view",
      "type": "function"
    },
    {
      "constant": false,
      "inputs": [
        {
          "internalType": "uint256",
          "name": "_patientId",
          "type": "uint256"
        }
      ],
      "name": "verifyPatient",
      "outputs": [],
      "payable": false,
      "stateMutability": "nonpayable",
      "type": "function"
    },
    {
      "constant": false,
      "inputs": [
        {
          "internalType": "uint256",
          "name": "_hospitalId",
          "type": "uint256"
        }
      ],
      "name": "verifyHospital",
      "outputs": [],
      "payable": false,
      "stateMutability": "nonpayable",
      "type": "function"
    },
    {
      "constant": false,
      "inputs": [
        {
          "internalType": "uint256",
          "name": "_patientId",
          "type": "uint256"
        },
        {
          "internalType": "uint256",
          "name": "_datatype",
          "type": "uint256"
        },
        {
          "internalType": "uint256",
          "name": "_duration",
          "type": "uint256"
        }
      ],
      "name": "NewDataNeeder",
      "outputs": [],
      "payable": false,
      "stateMutability": "nonpayable",
      "type": "function"
    },
    {
      "constant": false,
      "inputs": [
        {
          "internalType": "uint256",
          "name": "_hospitalId",
          "type": "uint256"
        },
        {
          "internalType": "uint256",
          "name": "_patientId",
          "type": "uint256"
        },
        {
          "internalType": "uint256",
          "name": "_needAmount",
          "type": "uint256"
        }
      ],
      "name": "AskPatientAuthority",
      "outputs": [],
      "payable": false,
      "stateMutability": "nonpayable",
      "type": "function"
    },
    {
      "constant": false,
      "inputs": [
        {
          "internalType": "uint256",
          "name": "_toHospitalId",
          "type": "uint256"
        },
        {
          "internalType": "uint256",
          "name": "_fromHospitalId",
          "type": "uint256"
        },
        {
          "internalType": "uint256",
          "name": "_needAmount",
          "type": "uint256"
        }
      ],
      "name": "PatientAuthorize2need",
      "outputs": [],
      "payable": false,
      "stateMutability": "nonpayable",
      "type": "function"
    },
    {
      "constant": false,
      "inputs": [
        {
          "internalType": "uint256",
          "name": "_toHospitalId",
          "type": "uint256"
        },
        {
          "internalType": "uint256",
          "name": "_needAmount",
          "type": "uint256"
        },
        {
          "internalType": "uint256",
          "name": "info",
          "type": "uint256"
        }
      ],
      "name": "ProvideData",
      "outputs": [],
      "payable": false,
      "stateMutability": "nonpayable",
      "type": "function"
    },
    {
      "constant": true,
      "inputs": [
        {
          "internalType": "uint256",
          "name": "_needAmount",
          "type": "uint256"
        },
        {
          "internalType": "uint256",
          "name": "urlId",
          "type": "uint256"
        }
      ],
      "name": "getURLByDataNeeder",
      "outputs": [
        {
          "internalType": "uint256",
          "name": "",
          "type": "uint256"
        },
        {
          "internalType": "string",
          "name": "",
          "type": "string"
        }
      ],
      "payable": false,
      "stateMutability": "view",
      "type": "function"
    }
  ],
  "bytecode": "0x608060405260006003556000600655600060075534801561001f57600080fd5b50336000806101000a81548173ffffffffffffffffffffffffffffffffffffffff021916908373ffffffffffffffffffffffffffffffffffffffff1602179055506000809054906101000a900473ffffffffffffffffffffffffffffffffffffffff1673ffffffffffffffffffffffffffffffffffffffff16600073ffffffffffffffffffffffffffffffffffffffff167fc64707e618a83637fc41ad1e3aa4242bd5fdd353f3d60bc0faf40db0d7d8607860405160405180910390a36116c2806100eb6000396000f3fe608060405234801561001057600080fd5b50600436106101005760003560e01c80639a837c9711610097578063b998cc7211610066578063b998cc721461031b578063c56a3e8814610361578063d6adfbf31461037f578063e40f99c11461043757610100565b80639a837c9714610291578063a27408f5146102af578063a3fbbaae146102b9578063a4705d64146102fd57610100565b8063728a9991116100d3578063728a9991146101d557806373c890fa146102175780638677e974146102215780638c4b773d1461026357610100565b80632bd705c6146101055780632cf3192814610123578063319e72a91461015157806333e7cb9314610193575b600080fd5b61010d61047d565b6040518082815260200191505060405180910390f35b61014f6004803603602081101561013957600080fd5b81019080803590602001909291905050506104c4565b005b6101916004803603606081101561016757600080fd5b81019080803590602001909291908035906020019092919080359060200190929190505050610624565b005b6101d3600480360360608110156101a957600080fd5b8101908080359060200190929190803590602001909291908035906020019092919050505061072b565b005b610215600480360360608110156101eb57600080fd5b81019080803590602001909291908035906020019092919080359060200190929190505050610832565b005b61021f610939565b005b6102616004803603606081101561023757600080fd5b81019080803590602001909291908035906020019092919080359060200190929190505050610b84565b005b61028f6004803603602081101561027957600080fd5b8101908080359060200190929190505050610d60565b005b610299610ebf565b6040518082815260200191505060405180910390f35b6102b7610f72565b005b6102fb600480360360208110156102cf57600080fd5b81019080803573ffffffffffffffffffffffffffffffffffffffff1690602001909291905050506111bd565b005b61030561133d565b6040518082815260200191505060405180910390f35b6103476004803603602081101561033157600080fd5b81019080803590602001909291905050506113f0565b604051808215151515815260200191505060405180910390f35b61036961141d565b6040518082815260200191505060405180910390f35b6103b56004803603604081101561039557600080fd5b810190808035906020019092919080359060200190929190505050611485565b6040518083815260200180602001828103825283818151815260200191508051906020019080838360005b838110156103fb5780820151818401526020810190506103e0565b50505050905090810190601f1680156104285780820380516001836020036101000a031916815260200191505b50935050505060405180910390f35b6104636004803603602081101561044d57600080fd5b8101908080359060200190929190505050611660565b604051808215151515815260200191505060405180910390f35b6000600560003373ffffffffffffffffffffffffffffffffffffffff1673ffffffffffffffffffffffffffffffffffffffff16815260200190815260200160002054905090565b6000809054906101000a900473ffffffffffffffffffffffffffffffffffffffff1673ffffffffffffffffffffffffffffffffffffffff163373ffffffffffffffffffffffffffffffffffffffff1614610586576040517f08c379a000000000000000000000000000000000000000000000000000000000815260040180806020018281038252601a8152602001807f4f6e6c79206d616e616765722063616e2063616c6c207468697300000000000081525060200191505060405180910390fd5b6004600082815260200190815260200160002060000160149054906101000a900460ff166105b357600080fd5b60016004600083815260200190815260200160002060000160156101000a81548160ff0219169083151502179055507f0ce4c127b08cec9e0844159f283f9c24b04a39fcfe732bb61dac965e53e40f628142604051808381526020018281526020019250505060405180910390a150565b60046000600560003373ffffffffffffffffffffffffffffffffffffffff1673ffffffffffffffffffffffffffffffffffffffff16815260200190815260200160002054815260200190815260200160002060000160159054906101000a900460ff1661069057600080fd5b7f08954826ba6c827ae722adc0d2cad36f2cb3b540886c9fb2c8b548473b9926f383600560003373ffffffffffffffffffffffffffffffffffffffff1673ffffffffffffffffffffffffffffffffffffffff16815260200190815260200160002054838542604051808681526020018581526020018481526020018381526020018281526020019550505050505060405180910390a1505050565b60016000600260003373ffffffffffffffffffffffffffffffffffffffff1673ffffffffffffffffffffffffffffffffffffffff16815260200190815260200160002054815260200190815260200160002060000160159054906101000a900460ff1661079757600080fd5b7f9172b6bfe003f20f966a7fe44b1083d118395d3aec90aef2b42aad17d2f011dd600260003373ffffffffffffffffffffffffffffffffffffffff1673ffffffffffffffffffffffffffffffffffffffff1681526020019081526020016000205482858542604051808681526020018581526020018481526020018381526020018281526020019550505050505060405180910390a1505050565b60046000600560003373ffffffffffffffffffffffffffffffffffffffff1673ffffffffffffffffffffffffffffffffffffffff16815260200190815260200160002054815260200190815260200160002060000160159054906101000a900460ff1661089e57600080fd5b7f0439551ddc37e60bc45860674dd844e225c9d7be7aacb8df2c42d7b3d1d1b1ae83600560003373ffffffffffffffffffffffffffffffffffffffff1673ffffffffffffffffffffffffffffffffffffffff16815260200190815260200160002054848442604051808681526020018581526020018481526020018381526020018281526020019550505050505060405180910390a1505050565b60016000600260003373ffffffffffffffffffffffffffffffffffffffff1673ffffffffffffffffffffffffffffffffffffffff16815260200190815260200160002054815260200190815260200160002060000160149054906101000a900460ff16156109a657600080fd5b60046000600560003373ffffffffffffffffffffffffffffffffffffffff1673ffffffffffffffffffffffffffffffffffffffff16815260200190815260200160002054815260200190815260200160002060000160149054906101000a900460ff1615610a1357600080fd5b60066000815480929190600101919050555060405180606001604052803373ffffffffffffffffffffffffffffffffffffffff1681526020016001151581526020016000151581525060046000600654815260200190815260200160002060008201518160000160006101000a81548173ffffffffffffffffffffffffffffffffffffffff021916908373ffffffffffffffffffffffffffffffffffffffff16021790555060208201518160000160146101000a81548160ff02191690831515021790555060408201518160000160156101000a81548160ff021916908315150217905550905050600654600560003373ffffffffffffffffffffffffffffffffffffffff1673ffffffffffffffffffffffffffffffffffffffff168152602001908152602001600020819055507fc124201338050313a2652ffbe40e0604be2803257508dd3e437f17485818e93260065442604051808381526020018281526020019250505060405180910390a1565b60046000600560003373ffffffffffffffffffffffffffffffffffffffff1673ffffffffffffffffffffffffffffffffffffffff16815260200190815260200160002054815260200190815260200160002060000160159054906101000a900460ff16610bf057600080fd5b6007600081548092919060010191905055506040518060c00160405280600560003373ffffffffffffffffffffffffffffffffffffffff1673ffffffffffffffffffffffffffffffffffffffff1681526020019081526020016000205481526020018481526020018381526020018281526020016000815260200142815250600860006007548152602001908152602001600020600082015181600001556020820151816001015560408201518160020155606082015181600301556080820151816004015560a082015181600501559050507f6117cb27f9991aa9b81964749a65ef16bd20bb31617d2dcf795f0618f4a5fd8d600560003373ffffffffffffffffffffffffffffffffffffffff1673ffffffffffffffffffffffffffffffffffffffff16815260200190815260200160002054600754854285604051808681526020018581526020018481526020018381526020018281526020019550505050505060405180910390a1505050565b6000809054906101000a900473ffffffffffffffffffffffffffffffffffffffff1673ffffffffffffffffffffffffffffffffffffffff163373ffffffffffffffffffffffffffffffffffffffff1614610e22576040517f08c379a000000000000000000000000000000000000000000000000000000000815260040180806020018281038252601a8152602001807f4f6e6c79206d616e616765722063616e2063616c6c207468697300000000000081525060200191505060405180910390fd5b6001600082815260200190815260200160002060000160149054906101000a900460ff16610e4f57600080fd5b600180600083815260200190815260200160002060000160156101000a81548160ff0219169083151502179055507f02583f1eec62e4196ffc2e0cafbc045b8d404e5dbc35559646a69ab4adb3b0f88142604051808381526020018281526020019250505060405180910390a150565b600060016000600260003373ffffffffffffffffffffffffffffffffffffffff1673ffffffffffffffffffffffffffffffffffffffff16815260200190815260200160002054815260200190815260200160002060000160149054906101000a900460ff16610f2d57600080fd5b600260003373ffffffffffffffffffffffffffffffffffffffff1673ffffffffffffffffffffffffffffffffffffffff16815260200190815260200160002054905090565b60016000600260003373ffffffffffffffffffffffffffffffffffffffff1673ffffffffffffffffffffffffffffffffffffffff16815260200190815260200160002054815260200190815260200160002060000160149054906101000a900460ff1615610fdf57600080fd5b60046000600560003373ffffffffffffffffffffffffffffffffffffffff1673ffffffffffffffffffffffffffffffffffffffff16815260200190815260200160002054815260200190815260200160002060000160149054906101000a900460ff161561104c57600080fd5b60036000815480929190600101919050555060405180606001604052803373ffffffffffffffffffffffffffffffffffffffff1681526020016001151581526020016000151581525060016000600354815260200190815260200160002060008201518160000160006101000a81548173ffffffffffffffffffffffffffffffffffffffff021916908373ffffffffffffffffffffffffffffffffffffffff16021790555060208201518160000160146101000a81548160ff02191690831515021790555060408201518160000160156101000a81548160ff021916908315150217905550905050600354600260003373ffffffffffffffffffffffffffffffffffffffff1673ffffffffffffffffffffffffffffffffffffffff168152602001908152602001600020819055507f3c21235b550c9a9298b450fe7791119feae603daef9055f7b25aada84c5f691260035442604051808381526020018281526020019250505060405180910390a1565b6000809054906101000a900473ffffffffffffffffffffffffffffffffffffffff1673ffffffffffffffffffffffffffffffffffffffff163373ffffffffffffffffffffffffffffffffffffffff161461127f576040517f08c379a000000000000000000000000000000000000000000000000000000000815260040180806020018281038252601a8152602001807f4f6e6c79206d616e616765722063616e2063616c6c207468697300000000000081525060200191505060405180910390fd5b8073ffffffffffffffffffffffffffffffffffffffff166000809054906101000a900473ffffffffffffffffffffffffffffffffffffffff1673ffffffffffffffffffffffffffffffffffffffff167fc64707e618a83637fc41ad1e3aa4242bd5fdd353f3d60bc0faf40db0d7d8607860405160405180910390a3806000806101000a81548173ffffffffffffffffffffffffffffffffffffffff021916908373ffffffffffffffffffffffffffffffffffffffff16021790555050565b600060046000600560003373ffffffffffffffffffffffffffffffffffffffff1673ffffffffffffffffffffffffffffffffffffffff16815260200190815260200160002054815260200190815260200160002060000160149054906101000a900460ff166113ab57600080fd5b600560003373ffffffffffffffffffffffffffffffffffffffff1673ffffffffffffffffffffffffffffffffffffffff16815260200190815260200160002054905090565b60006001600083815260200190815260200160002060000160159054906101000a900460ff169050919050565b60008060009054906101000a900473ffffffffffffffffffffffffffffffffffffffff1673ffffffffffffffffffffffffffffffffffffffff163373ffffffffffffffffffffffffffffffffffffffff16141561147d5760019050611482565b600090505b90565b6000606060046000600560003373ffffffffffffffffffffffffffffffffffffffff1673ffffffffffffffffffffffffffffffffffffffff16815260200190815260200160002054815260200190815260200160002060000160159054906101000a900460ff166114f557600080fd5b60006008600086815260200190815260200160002090503373ffffffffffffffffffffffffffffffffffffffff16600460008360000154815260200190815260200160002060000160009054906101000a900473ffffffffffffffffffffffffffffffffffffffff1673ffffffffffffffffffffffffffffffffffffffff161461157e57600080fd5b600081600601600086815260200190815260200160002060000154905060608260060160008781526020019081526020016000206001018054600181600116156101000203166002900480601f0160208091040260200160405190810160405280929190818152602001828054600181600116156101000203166002900480156116495780601f1061161e57610100808354040283529160200191611649565b820191906000526020600020905b81548152906001019060200180831161162c57829003601f168201915b505050505090508181945094505050509250929050565b60006004600083815260200190815260200160002060000160159054906101000a900460ff16905091905056fea265627a7a72315820e76f9e54350bad1ae03357219d6756509b86fe49252a375b34a9ea91dcd05aa464736f6c63430005100032",
  "source": "pragma solidity >=0.5.0 <0.7.0;\r\n// SPDX-License-Identifier: SJTU-IST\r\ncontract MemberContract {\r\n    address private manager;\r\n    event ManagerSet(address indexed oldManager, address indexed newManager);\r\n    event PatientRegisterSuccess(uint _patientId,uint timestamp);\r\n    event HospitalRegisterSuccess(uint _hospitalId,uint timestamp);\r\n    event PatientRegisterApply(uint _patientId,uint timestamp);\r\n    event HospitalRegisterApply(uint _hospitalId,uint timestamp);\r\n    constructor() public  {\r\n        manager = msg.sender;\r\n        emit ManagerSet(address(0), manager);\r\n    }\r\n    modifier OnlyManager{\r\n        require(msg.sender==manager,\"Only manager can call this\");\r\n        _;\r\n    }\r\n\r\n    // patient struct\r\n    struct Patient{\r\n        address patientAddress;\r\n        bool isValid;\r\n        bool isVerified;\r\n    }\r\n    mapping(uint => Patient) patients;\r\n    mapping(address =>uint) patientAddress2Id;\r\n    uint patientAmount = 0;\r\n    function PatientIsVerified(uint _patientId) public view returns(bool) {\r\n        return patients[_patientId].isVerified;\r\n    }\r\n\r\n    // hospital struct\r\n    struct Hospital{\r\n        address hospitalAddress;\r\n        bool isValid;\r\n        bool isVerified;\r\n    }\r\n    mapping(uint => Hospital)  hospitals;\r\n    mapping(address => uint)  hospitalAddress2Id;\r\n    uint hospitalAmount = 0;\r\n    function HospitalId() public view returns(uint) {\r\n        return hospitalAddress2Id[msg.sender];\r\n    }\r\n    function HospitalIsVerified(uint _hospitalId) public view returns(bool) {\r\n        return hospitals[_hospitalId].isVerified;\r\n    }\r\n\r\n    modifier OnlyUnRegister(){\r\n        require(!patients[patientAddress2Id[msg.sender]].isValid);\r\n        require(!hospitals[hospitalAddress2Id[msg.sender]].isValid);\r\n        _;\r\n    }\r\n\r\n    function PatientRegister() public OnlyUnRegister{\r\n        patientAmount++;\r\n        patients[patientAmount] = Patient(msg.sender,true,false);\r\n        patientAddress2Id[msg.sender]=patientAmount;\r\n        emit PatientRegisterApply(patientAmount,now);\r\n    }\r\n\r\n    function HospitalRegister() public OnlyUnRegister{\r\n        hospitalAmount++;\r\n        hospitals[hospitalAmount] = Hospital(msg.sender,true,false);\r\n        hospitalAddress2Id[msg.sender]=hospitalAmount;\r\n        emit HospitalRegisterApply(hospitalAmount,now);\r\n    }\r\n    function getPatientIdByAddress() public view returns(uint){\r\n        require(patients[patientAddress2Id[msg.sender]].isValid);\r\n        return patientAddress2Id[msg.sender];\r\n    }\r\n    function getHospitalIdByAddress() public view returns(uint){\r\n        require(hospitals[hospitalAddress2Id[msg.sender]].isValid);\r\n        return hospitalAddress2Id[msg.sender];\r\n    }\r\n    function changeManager(address newManager) public OnlyManager {\r\n        emit ManagerSet(manager, newManager);\r\n        manager = newManager;\r\n    }\r\n    function getManager() private view returns (address) {\r\n        return manager;\r\n    }\r\n    function isManager() public view returns (uint) {\r\n        if (msg.sender == manager) {\r\n            return 1;\r\n        }\r\n        else return 0;\r\n    }\r\n    function verifyPatient (uint _patientId) public OnlyManager{\r\n        require(patients[_patientId].isValid);\r\n        patients[_patientId].isVerified=true;\r\n        emit PatientRegisterSuccess(_patientId,now);\r\n    }\r\n    function verifyHospital(uint _hospitalId) public OnlyManager{\r\n        require(hospitals[_hospitalId].isValid);\r\n        hospitals[_hospitalId].isVerified=true;\r\n        emit HospitalRegisterSuccess(_hospitalId,now);\r\n    }\r\n\r\n    event Q_hasPatient(uint _hospitalId,uint _needAmount,uint _patientId,uint _timestamp,uint _duration);\r\n    event AskAuthorize(uint _toHospitalId,uint _fromHospitalId,uint _needAmount,uint _patientId,uint _timestamp);\r\n    event PatientAuthorize(uint _patientId,uint _needAmount,uint _toHospitalId,uint _fromHospitalId,uint _timestamp);\r\n    event ReturnInfo(uint _toHospitalId,uint _fromHospitalId,uint _needAmount,uint _info, uint _timestamp);\r\n    //dataneeder struct\r\n    struct DataNeeder{\r\n        uint hospitalId;\r\n        uint patientId;\r\n        uint datatype;\r\n        uint duration;\r\n        uint currentNum;\r\n        uint timestamp;\r\n        mapping(uint => DataProvider) providemap;\r\n    }\r\n    //dataprovider struct\r\n    struct DataProvider {\r\n        uint hospitalId;\r\n        string url;\r\n        uint timestamp;\r\n    }\r\n    uint needAmount = 0;\r\n    mapping(uint =>DataNeeder) needmap;\r\n    //Hospital_A creates new dataneeder\r\n    function NewDataNeeder(uint _patientId,uint _datatype,uint _duration) public {\r\n        require(hospitals[hospitalAddress2Id[msg.sender]].isVerified);\r\n        needAmount++;\r\n        needmap[needAmount]=DataNeeder(hospitalAddress2Id[msg.sender],_patientId,_datatype,_duration,0,now);\r\n        emit Q_hasPatient(hospitalAddress2Id[msg.sender],needAmount,_patientId,now,_duration);\r\n    }\r\n    //After checking database, Hospital_B asks patient's Authority\r\n    function AskPatientAuthority(uint _hospitalId, uint _patientId,uint _needAmount) public {\r\n        require(hospitals[hospitalAddress2Id[msg.sender]].isVerified);\r\n        emit AskAuthorize(_hospitalId,hospitalAddress2Id[msg.sender],_needAmount,_patientId,now);\r\n    }\r\n    //Patient Authorize to the need \r\n    function PatientAuthorize2need(uint _toHospitalId, uint _fromHospitalId, uint _needAmount) public {\r\n        require(patients[patientAddress2Id[msg.sender]].isVerified);\r\n        emit PatientAuthorize(patientAddress2Id[msg.sender],_needAmount,_toHospitalId,_fromHospitalId,now);\r\n    }\r\n    //Hospital_B provides URLs to the need\r\n    function ProvideData(uint _toHospitalId, uint _needAmount,uint info) public {\r\n        require(hospitals[hospitalAddress2Id[msg.sender]].isVerified);\r\n        emit ReturnInfo(_toHospitalId,hospitalAddress2Id[msg.sender],_needAmount,info,now);\r\n    }\r\n    //Hospital_A gets URLs from the need\r\n    function getURLByDataNeeder(uint _needAmount,uint urlId) public view returns(uint,string memory) {\r\n        require(hospitals[hospitalAddress2Id[msg.sender]].isVerified);\r\n        DataNeeder storage _dataNeeder = needmap[_needAmount];\r\n        require(hospitals[_dataNeeder.hospitalId].hospitalAddress==msg.sender);\r\n        uint _providedHospitalId=_dataNeeder.providemap[urlId].hospitalId;\r\n        string memory _url=(_dataNeeder.providemap[urlId]).url;\r\n        return(_providedHospitalId,_url); \r\n    }\r\n    // //Hospital_B provides URLs to the need\r\n    // function ProvideData(uint _needAmount,string memory _url) public {\r\n    //     require(hospitals[hospitalAddress2Id[msg.sender]].isVerified);\r\n    //     DataNeeder storage _dataNeeder = needmap[_needAmount];\r\n    //     _dataNeeder.currentNum++;\r\n    //     _dataNeeder.providemap[_dataNeeder.currentNum]=DataProvider(hospitalAddress2Id[msg.sender], _url,now);\r\n    //     emit ReturnURLs(hospitalAddress2Id[msg.sender],_needAmount,now);\r\n    // }\r\n    // //Hospital_A gets URLs from the need\r\n    // function getURLByDataNeeder(uint _needAmount,uint urlId) public view returns(uint,string memory) {\r\n    //     require(hospitals[hospitalAddress2Id[msg.sender]].isVerified);\r\n    //     DataNeeder storage _dataNeeder = needmap[_needAmount];\r\n    //     require(hospitals[_dataNeeder.hospitalId].hospitalAddress==msg.sender);\r\n    //     uint _providedHospitalId=_dataNeeder.providemap[urlId].hospitalId;\r\n    //     string memory _url=(_dataNeeder.providemap[urlId]).url;\r\n    //     return(_providedHospitalId,_url); \r\n    // }\r\n}\r\n",
  "sourcePath": "D:\\XIEHOU\\study\\PRP\\Hospital_Patient_Authorize_DAPP\\Hospital_Patient_Authorize_DAPP\\src\\contracts\\MemberContract.sol",
  "compiler": {
    "name": "solc",
    "version": "0.5.16+commit.9c3226ce.Emscripten.clang"
  },
  "schemaVersion": "3.2.3",
  "updatedAt": "2021-02-26T02:16:58.436Z",
  "networkType": "ethereum",
  "devdoc": {
    "methods": {}
  },
  "userdoc": {
    "methods": {}
  }
}